{
    "AmIOnEIP150_Singularity" : {
        "_info" : {
            "comment" : "",
            "filledwith" : "testeth 1.7.0-alpha.2-8+commit.86bb4068.dirty",
            "lllcversion" : "Version: 0.5.12-develop.2019.9.13+commit.2d601a4f.Linux.g++",
            "source" : "src/BlockchainTestsFiller/ValidBlocks/bcForkStressTest/AmIOnEIP150Filler.json",
            "sourceHash" : "920dd1992c0f63b2301bcb7d896567bc7277f2c6b6e1198e2dc11aa1e8513646"
        },
        "blocks" : [
            {
                "blockHeader" : {
                    "bloom" : "0x00000000000000000000000000000000000000000000000000000000000000000000000000000000000000000000000000000000000000000000000000000000000000000000000000000000000000000000000000000000000000000000000000000000000000000000000000000000000000000000000000000000000000000000000000000000000000000000000000000000000000000000000000000000000000000000000000000000000000000000000000000000000000000000000000000000000000000000000000000000000000000000000000000000000000000000000000000000000000000000000000000000000000000000000000000000",
                    "coinbase" : "0x8888f1f195afa192cfee860698584c030f4c9db1",
                    "difficulty" : "0x020000",
                    "extraData" : "",
                    "gasLimit" : "0x2fefba",
                    "gasUsed" : "0xa2ff",
                    "hash" : "0x35e29288a20218844685b41f9bc71af4ac095f5c666e97649ae4b20eb8402542",
                    "mixHash" : "0x02d0630ddd32de4205ead19e5f9cdb15e50cedef1906749f70b1225a02aa50b1",
                    "nonce" : "0x6089a79443df0147",
                    "number" : "0x01",
                    "parentHash" : "0xd8a1496c8c7e7313d7d78d21bb22c210587acff67e2fc9bc7c805fb34fb16596",
                    "receiptTrie" : "0x51ccf33bec5f4f553685c21415e109a6c5b867a07fd8796275e9b2b3aca16d64",
                    "stateRoot" : "0x6956af70848251a6b280a90b3fcd3a40079b18c1f26dc135ae3d111966265eb1",
                    "timestamp" : "0x5d8b68a1",
                    "transactionsTrie" : "0x6fa2a3a10a3d40803cdbc07b306761ca0424b04fdddb004222f0f2f1dcdd91f3",
                    "uncleHash" : "0x1dcc4de8dec75d7aab85b567b6ccd41ad312451b948a7413f0a142fd40d49347"
                },
                "blocknumber" : "1",
                "chainname" : "A",
                "rlp" : "0xf90261f901f9a0d8a1496c8c7e7313d7d78d21bb22c210587acff67e2fc9bc7c805fb34fb16596a01dcc4de8dec75d7aab85b567b6ccd41ad312451b948a7413f0a142fd40d49347948888f1f195afa192cfee860698584c030f4c9db1a06956af70848251a6b280a90b3fcd3a40079b18c1f26dc135ae3d111966265eb1a06fa2a3a10a3d40803cdbc07b306761ca0424b04fdddb004222f0f2f1dcdd91f3a051ccf33bec5f4f553685c21415e109a6c5b867a07fd8796275e9b2b3aca16d64b90100000000000000000000000000000000000000000000000000000000000000000000000000000000000000000000000000000000000000000000000000000000000000000000000000000000000000000000000000000000000000000000000000000000000000000000000000000000000000000000000000000000000000000000000000000000000000000000000000000000000000000000000000000000000000000000000000000000000000000000000000000000000000000000000000000000000000000000000000000000000000000000000000000000000000000000000000000000000000000000000000000000000000000000000000000000008302000001832fefba82a2ff845d8b68a180a002d0630ddd32de4205ead19e5f9cdb15e50cedef1906749f70b1225a02aa50b1886089a79443df0147f862f8608001830493e094b94f5374fce5edbc8e2a8697c15331677e6ebf0b0a801ba0261b1672e671176a6c30f525fa683fcecc0e42906f66811cc5724f61058e7432a0501d75e2b022a71cbac03d9adb29a2de19f91af0a199d16290d7545636087cd1c0",
                "transactions" : [
                    {
                        "data" : "0x",
                        "gasLimit" : "0x0493e0",
                        "gasPrice" : "0x01",
                        "nonce" : "0x00",
                        "r" : "0x261b1672e671176a6c30f525fa683fcecc0e42906f66811cc5724f61058e7432",
                        "s" : "0x501d75e2b022a71cbac03d9adb29a2de19f91af0a199d16290d7545636087cd1",
                        "to" : "0xb94f5374fce5edbc8e2a8697c15331677e6ebf0b",
                        "v" : "0x1b",
                        "value" : "0x0a"
                    }
                ],
                "uncleHeaders" : [
                ]
            }
        ],
        "genesisBlockHeader" : {
            "bloom" : "0x00000000000000000000000000000000000000000000000000000000000000000000000000000000000000000000000000000000000000000000000000000000000000000000000000000000000000000000000000000000000000000000000000000000000000000000000000000000000000000000000000000000000000000000000000000000000000000000000000000000000000000000000000000000000000000000000000000000000000000000000000000000000000000000000000000000000000000000000000000000000000000000000000000000000000000000000000000000000000000000000000000000000000000000000000000000",
            "coinbase" : "0x8888f1f195afa192cfee860698584c030f4c9db1",
            "difficulty" : "0x020000",
            "extraData" : "0x42",
            "gasLimit" : "0x2fefd8",
            "gasUsed" : "0x00",
            "hash" : "0xd8a1496c8c7e7313d7d78d21bb22c210587acff67e2fc9bc7c805fb34fb16596",
            "mixHash" : "0x56e81f171bcc55a6ff8345e692c0f86e5b48e01b996cadc001622fb5e363b421",
            "nonce" : "0x0102030405060708",
            "number" : "0x00",
            "parentHash" : "0x0000000000000000000000000000000000000000000000000000000000000000",
            "receiptTrie" : "0x56e81f171bcc55a6ff8345e692c0f86e5b48e01b996cadc001622fb5e363b421",
            "stateRoot" : "0xd67d47dae068d80b39e0325ea4baee9950bff127d7d435cf2b39afdac04a95a5",
            "timestamp" : "0x54c98c81",
            "transactionsTrie" : "0x56e81f171bcc55a6ff8345e692c0f86e5b48e01b996cadc001622fb5e363b421",
            "uncleHash" : "0x1dcc4de8dec75d7aab85b567b6ccd41ad312451b948a7413f0a142fd40d49347"
        },
        "genesisRLP" : "0xf901fcf901f7a00000000000000000000000000000000000000000000000000000000000000000a01dcc4de8dec75d7aab85b567b6ccd41ad312451b948a7413f0a142fd40d49347948888f1f195afa192cfee860698584c030f4c9db1a0d67d47dae068d80b39e0325ea4baee9950bff127d7d435cf2b39afdac04a95a5a056e81f171bcc55a6ff8345e692c0f86e5b48e01b996cadc001622fb5e363b421a056e81f171bcc55a6ff8345e692c0f86e5b48e01b996cadc001622fb5e363b421b90100000000000000000000000000000000000000000000000000000000000000000000000000000000000000000000000000000000000000000000000000000000000000000000000000000000000000000000000000000000000000000000000000000000000000000000000000000000000000000000000000000000000000000000000000000000000000000000000000000000000000000000000000000000000000000000000000000000000000000000000000000000000000000000000000000000000000000000000000000000000000000000000000000000000000000000000000000000000000000000000000000000000000000000000000000000008302000080832fefd8808454c98c8142a056e81f171bcc55a6ff8345e692c0f86e5b48e01b996cadc001622fb5e363b421880102030405060708c0c0",
        "lastblockhash" : "0x35e29288a20218844685b41f9bc71af4ac095f5c666e97649ae4b20eb8402542",
        "network" : "Singularity",
        "postState" : {
            "0x8888f1f195afa192cfee860698584c030f4c9db1" : {
                "balance" : "0x1bc16d674ec8a2ff",
                "code" : "",
                "nonce" : "0x00",
                "storage" : {
                }
            },
            "0xa94f5374fce5edbc8e2a8697c15331677e6ebf0b" : {
                "balance" : "0x09184e71fcf7",
                "code" : "",
                "nonce" : "0x01",
                "storage" : {
                }
            },
            "0xb94f5374fce5edbc8e2a8697c15331677e6ebf0b" : {
                "balance" : "0x0a",
                "code" : "0x6000600060006000600073c94f5374fce5edbc8e2a8697c15331677e6ebf0b620f4240f100",
                "nonce" : "0x00",
                "storage" : {
                }
            },
            "0xc94f5374fce5edbc8e2a8697c15331677e6ebf0b" : {
                "balance" : "0x00",
                "code" : "0x600c60015500",
                "nonce" : "0x00",
                "storage" : {
                    "0x01" : "0x0c"
                }
            }
        },
        "pre" : {
            "0xa94f5374fce5edbc8e2a8697c15331677e6ebf0b" : {
                "balance" : "0x09184e72a000",
                "code" : "",
                "nonce" : "0x00",
                "storage" : {
                }
            },
            "0xb94f5374fce5edbc8e2a8697c15331677e6ebf0b" : {
                "balance" : "0x00",
                "code" : "0x6000600060006000600073c94f5374fce5edbc8e2a8697c15331677e6ebf0b620f4240f100",
                "nonce" : "0x00",
                "storage" : {
                }
            },
            "0xc94f5374fce5edbc8e2a8697c15331677e6ebf0b" : {
                "balance" : "0x00",
                "code" : "0x600c60015500",
                "nonce" : "0x00",
                "storage" : {
                }
            }
        },
        "sealEngine" : "Ethash"
    }
}