{
    "ChainAtoChainB_BlockHash_Singularity" : {
        "_info" : {
            "comment" : "",
            "filledwith" : "testeth 1.7.0-alpha.2-8+commit.86bb4068.dirty",
            "lllcversion" : "Version: 0.5.12-develop.2019.9.13+commit.2d601a4f.Linux.g++",
            "source" : "src/BlockchainTestsFiller/ValidBlocks/bcMultiChainTest/ChainAtoChainB_BlockHashFiller.json",
            "sourceHash" : "bea1bf826c7bfbd73051e5f00165178640232f8301751b8c154f5e8b427b1ea4"
        },
        "blocks" : [
            {
                "blockHeader" : {
                    "bloom" : "0x00000000000000000000000000000000000000000000000000000000000000000000000000000000000000000000000000000000000000000000000000000000000000000000000000000000000000000000000000000000000000000000000000000000000000000000000000000000000000000000000000000000000000000000000000000000000000000000000000000000000000000000000000000000000000000000000000000000000000000000000000000000000000000000000000000000000000000000000000000000000000000000000000000000000000000000000000000000000000000000000000000000000000000000000000000000",
                    "coinbase" : "0x8888f1f195afa192cfee860698584c030f4c9db1",
                    "difficulty" : "0x020000",
                    "extraData" : "",
                    "gasLimit" : "0x2fefba",
                    "gasUsed" : "0x5208",
                    "hash" : "0xae8498c3a46213481c9c788b44aac663a8e5499d40fabd482b4287a846cc16d7",
                    "mixHash" : "0xe2f6eabd1da0c16ab04b2690b2c35c95518cd7ef670e4169fb65cd2ae1e8d14f",
                    "nonce" : "0xda9afb94fde90116",
                    "number" : "0x01",
                    "parentHash" : "0x5fe820cd7eaea7e661d919a12ef6d5f075c74af92902d36c303582bc0361d2b1",
                    "receiptTrie" : "0x056b23fbba480696b65fe5a59b8f2148a1299103c4f57df839233af2cf4ca2d2",
                    "stateRoot" : "0xffdec9148a41d4aa012c41256989581c54c63db8d75693ce27f7aded5f5db9d6",
                    "timestamp" : "0x5d8b7142",
                    "transactionsTrie" : "0xf80217763f8d00269566918ebd3c7729465f8b9818a0f437bf215a8190884d5d",
                    "uncleHash" : "0x1dcc4de8dec75d7aab85b567b6ccd41ad312451b948a7413f0a142fd40d49347"
                },
                "blocknumber" : "1",
                "chainname" : "A",
                "rlp" : "0xf90261f901f9a05fe820cd7eaea7e661d919a12ef6d5f075c74af92902d36c303582bc0361d2b1a01dcc4de8dec75d7aab85b567b6ccd41ad312451b948a7413f0a142fd40d49347948888f1f195afa192cfee860698584c030f4c9db1a0ffdec9148a41d4aa012c41256989581c54c63db8d75693ce27f7aded5f5db9d6a0f80217763f8d00269566918ebd3c7729465f8b9818a0f437bf215a8190884d5da0056b23fbba480696b65fe5a59b8f2148a1299103c4f57df839233af2cf4ca2d2b90100000000000000000000000000000000000000000000000000000000000000000000000000000000000000000000000000000000000000000000000000000000000000000000000000000000000000000000000000000000000000000000000000000000000000000000000000000000000000000000000000000000000000000000000000000000000000000000000000000000000000000000000000000000000000000000000000000000000000000000000000000000000000000000000000000000000000000000000000000000000000000000000000000000000000000000000000000000000000000000000000000000000000000000000000000000008302000001832fefba825208845d8b714280a0e2f6eabd1da0c16ab04b2690b2c35c95518cd7ef670e4169fb65cd2ae1e8d14f88da9afb94fde90116f862f86080018304cb2f94a95e7baea6a6c7c4c2dfeb977efac326af552d870a801ca0886931af2e4e440628e6e862e50944534ff3068c38cabb908dc708fa3736bfe0a03de874195b35641546d6c48409cca106127e5260a67fe7ed21a35dfb1f7a08b5c0",
                "transactions" : [
                    {
                        "data" : "0x",
                        "gasLimit" : "0x04cb2f",
                        "gasPrice" : "0x01",
                        "nonce" : "0x00",
                        "r" : "0x886931af2e4e440628e6e862e50944534ff3068c38cabb908dc708fa3736bfe0",
                        "s" : "0x3de874195b35641546d6c48409cca106127e5260a67fe7ed21a35dfb1f7a08b5",
                        "to" : "0xa95e7baea6a6c7c4c2dfeb977efac326af552d87",
                        "v" : "0x1c",
                        "value" : "0x0a"
                    }
                ],
                "uncleHeaders" : [
                ]
            },
            {
                "blockHeader" : {
                    "bloom" : "0x00000000000000000000000000000000000000000000000000000000000000000000000000000000000000000000000000000000000000000000000000000000000000000000000000000000000000000000000000000000000000000000000000000000000000000000000000000000000000000000000000000000000000000000000000000000000000000000000000000000000000000000000000000000000000000000000000000000000000000000000000000000000000000000000000000000000000000000000000000000000000000000000000000000000000000000000000000000000000000000000000000000000000000000000000000000",
                    "coinbase" : "0x8888f1f195afa192cfee860698584c030f4c9db1",
                    "difficulty" : "0x020040",
                    "extraData" : "",
                    "gasLimit" : "0x2fefba",
                    "gasUsed" : "0xa042",
                    "hash" : "0xc9b3558953abc2ce003d00805d78b0a0d19ba065ef20d99e43a12abfa0a36aa9",
                    "mixHash" : "0x7336fbefe087168ea93c8fcdfff90c69e3302270ce0d8199abf3e921a8e4d05c",
                    "nonce" : "0x84b3ab8d11e44764",
                    "number" : "0x02",
                    "parentHash" : "0xae8498c3a46213481c9c788b44aac663a8e5499d40fabd482b4287a846cc16d7",
                    "receiptTrie" : "0x3218a5c148a88742bf17461fb0acd6bf6caf81038570f36a5016b10b414fe6f8",
                    "stateRoot" : "0x6f8daa2364e40a10a92ee6c3e887227889c015f31f0dc75aca770294fd981aec",
                    "timestamp" : "0x5d8b7143",
                    "transactionsTrie" : "0xc673e076264c4669a5c2e479f1757b78e42511efe33b5fd2c0a23b929c7f87f5",
                    "uncleHash" : "0x1dcc4de8dec75d7aab85b567b6ccd41ad312451b948a7413f0a142fd40d49347"
                },
                "blocknumber" : "2",
                "chainname" : "A",
                "rlp" : "0xf90260f901f9a0ae8498c3a46213481c9c788b44aac663a8e5499d40fabd482b4287a846cc16d7a01dcc4de8dec75d7aab85b567b6ccd41ad312451b948a7413f0a142fd40d49347948888f1f195afa192cfee860698584c030f4c9db1a06f8daa2364e40a10a92ee6c3e887227889c015f31f0dc75aca770294fd981aeca0c673e076264c4669a5c2e479f1757b78e42511efe33b5fd2c0a23b929c7f87f5a03218a5c148a88742bf17461fb0acd6bf6caf81038570f36a5016b10b414fe6f8b90100000000000000000000000000000000000000000000000000000000000000000000000000000000000000000000000000000000000000000000000000000000000000000000000000000000000000000000000000000000000000000000000000000000000000000000000000000000000000000000000000000000000000000000000000000000000000000000000000000000000000000000000000000000000000000000000000000000000000000000000000000000000000000000000000000000000000000000000000000000000000000000000000000000000000000000000000000000000000000000000000000000000000000000000000000000008302004002832fefba82a042845d8b714380a07336fbefe087168ea93c8fcdfff90c69e3302270ce0d8199abf3e921a8e4d05c8884b3ab8d11e44764f861f85f01018304cb2f94095e7baea6a6c7c4c2dfeb977efac326af552d870a801ba033c86e64d708c97c6b135cadff79dbf45985aa0b53694789e90d15f756765f239f1d0f8caa2a16405148c9d85581be5814960010f3cba938b5501590cea1f7cfc0",
                "transactions" : [
                    {
                        "data" : "0x",
                        "gasLimit" : "0x04cb2f",
                        "gasPrice" : "0x01",
                        "nonce" : "0x01",
                        "r" : "0x33c86e64d708c97c6b135cadff79dbf45985aa0b53694789e90d15f756765f23",
                        "s" : "0x1d0f8caa2a16405148c9d85581be5814960010f3cba938b5501590cea1f7cf",
                        "to" : "0x095e7baea6a6c7c4c2dfeb977efac326af552d87",
                        "v" : "0x1b",
                        "value" : "0x0a"
                    }
                ],
                "uncleHeaders" : [
                ]
            },
            {
                "blockHeader" : {
                    "bloom" : "0x00000000000000000000000000000000000000000000000000000000000000000000000000000000000000000000000000000000000000000000000000000000000000000000000000000000000000000000000000000000000000000000000000000000000000000000000000000000000000000000000000000000000000000000000000000000000000000000000000000000000000000000000000000000000000000000000000000000000000000000000000000000000000000000000000000000000000000000000000000000000000000000000000000000000000000000000000000000000000000000000000000000000000000000000000000000",
                    "coinbase" : "0x8888f1f195afa192cfee860698584c030f4c9db1",
                    "difficulty" : "0x020000",
                    "extraData" : "",
                    "gasLimit" : "0x2fefba",
                    "gasUsed" : "0x5208",
                    "hash" : "0xc9c2b12dd524b2e5c97fcb6f6f232586c3efde137738a2bc4a401e9ba989f606",
                    "mixHash" : "0x78f79a442816054a6653d6ca9fdcc219754b8cfee419fc0cb5e703e4a37cc475",
                    "nonce" : "0x12cc36d45a7a0566",
                    "number" : "0x03",
                    "parentHash" : "0xc9b3558953abc2ce003d00805d78b0a0d19ba065ef20d99e43a12abfa0a36aa9",
                    "receiptTrie" : "0x056b23fbba480696b65fe5a59b8f2148a1299103c4f57df839233af2cf4ca2d2",
                    "stateRoot" : "0x549ea571060957e810a498a9a09269bf2f668190ff40ab7816ead035efb256ac",
                    "timestamp" : "0x5d8b715b",
                    "transactionsTrie" : "0xe4ddf887030952f0f259c5e4ea01be3271c08e931e39f32f7b8fa6d7c772e759",
                    "uncleHash" : "0x1dcc4de8dec75d7aab85b567b6ccd41ad312451b948a7413f0a142fd40d49347"
                },
                "blocknumber" : "3",
                "chainname" : "A",
                "rlp" : "0xf90261f901f9a0c9b3558953abc2ce003d00805d78b0a0d19ba065ef20d99e43a12abfa0a36aa9a01dcc4de8dec75d7aab85b567b6ccd41ad312451b948a7413f0a142fd40d49347948888f1f195afa192cfee860698584c030f4c9db1a0549ea571060957e810a498a9a09269bf2f668190ff40ab7816ead035efb256aca0e4ddf887030952f0f259c5e4ea01be3271c08e931e39f32f7b8fa6d7c772e759a0056b23fbba480696b65fe5a59b8f2148a1299103c4f57df839233af2cf4ca2d2b90100000000000000000000000000000000000000000000000000000000000000000000000000000000000000000000000000000000000000000000000000000000000000000000000000000000000000000000000000000000000000000000000000000000000000000000000000000000000000000000000000000000000000000000000000000000000000000000000000000000000000000000000000000000000000000000000000000000000000000000000000000000000000000000000000000000000000000000000000000000000000000000000000000000000000000000000000000000000000000000000000000000000000000000000000000000008302000003832fefba825208845d8b715b80a078f79a442816054a6653d6ca9fdcc219754b8cfee419fc0cb5e703e4a37cc4758812cc36d45a7a0566f862f86002018304cb2f94a95e7baea6a6c7c4c2dfeb977efac326af552d870a801ca04c5dbd975005a9dd8c5d871ca55eae1ebc2931db605bae918121448cddd02e74a042df3d63071196c4c66fe0db760150fe7c176f3dce7daba73b5c8bcadc53f102c0",
                "transactions" : [
                    {
                        "data" : "0x",
                        "gasLimit" : "0x04cb2f",
                        "gasPrice" : "0x01",
                        "nonce" : "0x02",
                        "r" : "0x4c5dbd975005a9dd8c5d871ca55eae1ebc2931db605bae918121448cddd02e74",
                        "s" : "0x42df3d63071196c4c66fe0db760150fe7c176f3dce7daba73b5c8bcadc53f102",
                        "to" : "0xa95e7baea6a6c7c4c2dfeb977efac326af552d87",
                        "v" : "0x1c",
                        "value" : "0x0a"
                    }
                ],
                "uncleHeaders" : [
                ]
            },
            {
                "blockHeader" : {
                    "bloom" : "0x00000000000000000000000000000000000000000000000000000000000000000000000000000000000000000000000000000000000000000000000000000000000000000000000000000000000000000000000000000000000000000000000000000000000000000000000000000000000000000000000000000000000000000000000000000000000000000000000000000000000000000000000000000000000000000000000000000000000000000000000000000000000000000000000000000000000000000000000000000000000000000000000000000000000000000000000000000000000000000000000000000000000000000000000000000000",
                    "coinbase" : "0x8888f1f195afa192cfee860698584c030f4c9db1",
                    "difficulty" : "0x020000",
                    "extraData" : "",
                    "gasLimit" : "0x2fefba",
                    "gasUsed" : "0x5208",
                    "hash" : "0x925051dd40058767a1a0afc5334b9bc390468d4a08db7f53deca2af2d163939b",
                    "mixHash" : "0xeee7b2206de080b4a6188688d6466a1e6076e8e6a54c04b5b035791d189db885",
                    "nonce" : "0xee62b02b0e13b0df",
                    "number" : "0x01",
                    "parentHash" : "0x5fe820cd7eaea7e661d919a12ef6d5f075c74af92902d36c303582bc0361d2b1",
                    "receiptTrie" : "0x056b23fbba480696b65fe5a59b8f2148a1299103c4f57df839233af2cf4ca2d2",
                    "stateRoot" : "0xdff5ffce79ddf4989989ae67d77cb987d310a788e92b08d4535581e8df54e6e2",
                    "timestamp" : "0x5d8b7146",
                    "transactionsTrie" : "0xda4ff51d21fb53978f91cc0bae0c01cfe4ed3485b999e4ef55d16441198223b5",
                    "uncleHash" : "0x1dcc4de8dec75d7aab85b567b6ccd41ad312451b948a7413f0a142fd40d49347"
                },
                "blocknumber" : "1",
                "chainname" : "B",
                "rlp" : "0xf90261f901f9a05fe820cd7eaea7e661d919a12ef6d5f075c74af92902d36c303582bc0361d2b1a01dcc4de8dec75d7aab85b567b6ccd41ad312451b948a7413f0a142fd40d49347948888f1f195afa192cfee860698584c030f4c9db1a0dff5ffce79ddf4989989ae67d77cb987d310a788e92b08d4535581e8df54e6e2a0da4ff51d21fb53978f91cc0bae0c01cfe4ed3485b999e4ef55d16441198223b5a0056b23fbba480696b65fe5a59b8f2148a1299103c4f57df839233af2cf4ca2d2b90100000000000000000000000000000000000000000000000000000000000000000000000000000000000000000000000000000000000000000000000000000000000000000000000000000000000000000000000000000000000000000000000000000000000000000000000000000000000000000000000000000000000000000000000000000000000000000000000000000000000000000000000000000000000000000000000000000000000000000000000000000000000000000000000000000000000000000000000000000000000000000000000000000000000000000000000000000000000000000000000000000000000000000000000000000000008302000001832fefba825208845d8b714680a0eee7b2206de080b4a6188688d6466a1e6076e8e6a54c04b5b035791d189db88588ee62b02b0e13b0dff862f86080018304cb2f94a95e7baea6a6c7c4c2dfeb977efac326af552d8764801ba08d9a64385e3a24e9f6fdd49256c9f7d23cd501deaa55c5b4283fc58b2a601039a02518fdccd38aa1caaf4b49c907f750961f325d3d70104a22700b16d9af0d0557c0",
                "transactions" : [
                    {
                        "data" : "0x",
                        "gasLimit" : "0x04cb2f",
                        "gasPrice" : "0x01",
                        "nonce" : "0x00",
                        "r" : "0x8d9a64385e3a24e9f6fdd49256c9f7d23cd501deaa55c5b4283fc58b2a601039",
                        "s" : "0x2518fdccd38aa1caaf4b49c907f750961f325d3d70104a22700b16d9af0d0557",
                        "to" : "0xa95e7baea6a6c7c4c2dfeb977efac326af552d87",
                        "v" : "0x1b",
                        "value" : "0x64"
                    }
                ],
                "uncleHeaders" : [
                ]
            },
            {
                "blockHeader" : {
                    "bloom" : "0x00000000000000000000000000000000000000000000000000000000000000000000000000000000000000000000000000000000000000000000000000000000000000000000000000000000000000000000000000000000000000000000000000000000000000000000000000000000000000000000000000000000000000000000000000000000000000000000000000000000000000000000000000000000000000000000000000000000000000000000000000000000000000000000000000000000000000000000000000000000000000000000000000000000000000000000000000000000000000000000000000000000000000000000000000000000",
                    "coinbase" : "0x8888f1f195afa192cfee860698584c030f4c9db1",
                    "difficulty" : "0x020040",
                    "extraData" : "",
                    "gasLimit" : "0x2fefba",
                    "gasUsed" : "0xa042",
                    "hash" : "0xa97b9d4f3f068db71d635fe71eeed6c9146fcebcf75b347d9b3b9c82af601099",
                    "mixHash" : "0x86d40fdd986f1f9deb6b5dc90491d43928c7821cdad0e4709b2692dde1057c4c",
                    "nonce" : "0xc7ff1c6c5b3cd502",
                    "number" : "0x02",
                    "parentHash" : "0x925051dd40058767a1a0afc5334b9bc390468d4a08db7f53deca2af2d163939b",
                    "receiptTrie" : "0x3218a5c148a88742bf17461fb0acd6bf6caf81038570f36a5016b10b414fe6f8",
                    "stateRoot" : "0x9d6546325df86b2e60398f77cb106a5c6cc3d3f835ab08fbdc5081b14a3ba712",
                    "timestamp" : "0x5d8b7147",
                    "transactionsTrie" : "0x7d90b54544a650e638e06d360a7dc2eee226c40373df61476b792ca3eccae35b",
                    "uncleHash" : "0x1dcc4de8dec75d7aab85b567b6ccd41ad312451b948a7413f0a142fd40d49347"
                },
                "blocknumber" : "2",
                "chainname" : "B",
                "rlp" : "0xf90261f901f9a0925051dd40058767a1a0afc5334b9bc390468d4a08db7f53deca2af2d163939ba01dcc4de8dec75d7aab85b567b6ccd41ad312451b948a7413f0a142fd40d49347948888f1f195afa192cfee860698584c030f4c9db1a09d6546325df86b2e60398f77cb106a5c6cc3d3f835ab08fbdc5081b14a3ba712a07d90b54544a650e638e06d360a7dc2eee226c40373df61476b792ca3eccae35ba03218a5c148a88742bf17461fb0acd6bf6caf81038570f36a5016b10b414fe6f8b90100000000000000000000000000000000000000000000000000000000000000000000000000000000000000000000000000000000000000000000000000000000000000000000000000000000000000000000000000000000000000000000000000000000000000000000000000000000000000000000000000000000000000000000000000000000000000000000000000000000000000000000000000000000000000000000000000000000000000000000000000000000000000000000000000000000000000000000000000000000000000000000000000000000000000000000000000000000000000000000000000000000000000000000000000000000008302004002832fefba82a042845d8b714780a086d40fdd986f1f9deb6b5dc90491d43928c7821cdad0e4709b2692dde1057c4c88c7ff1c6c5b3cd502f862f86001018304bb2b94095e7baea6a6c7c4c2dfeb977efac326af552d8764801ca0b66e1a2ee26689bdbb87af26141f167ded19e6b2041407bf4f80a36ce30a1b1ba0084e5def3deddc4ba0bd7dd8cebf184a8c3a3c2d5d9af5cb642bdf819d2e0be4c0",
                "transactions" : [
                    {
                        "data" : "0x",
                        "gasLimit" : "0x04bb2b",
                        "gasPrice" : "0x01",
                        "nonce" : "0x01",
                        "r" : "0xb66e1a2ee26689bdbb87af26141f167ded19e6b2041407bf4f80a36ce30a1b1b",
                        "s" : "0x084e5def3deddc4ba0bd7dd8cebf184a8c3a3c2d5d9af5cb642bdf819d2e0be4",
                        "to" : "0x095e7baea6a6c7c4c2dfeb977efac326af552d87",
                        "v" : "0x1c",
                        "value" : "0x64"
                    }
                ],
                "uncleHeaders" : [
                ]
            },
            {
                "blockHeader" : {
                    "bloom" : "0x00000000000000000000000000000000000000000000000000000000000000000000000000000000000000000000000000000000000000000000000000000000000000000000000000000000000000000000000000000000000000000000000000000000000000000000000000000000000000000000000000000000000000000000000000000000000000000000000000000000000000000000000000000000000000000000000000000000000000000000000000000000000000000000000000000000000000000000000000000000000000000000000000000000000000000000000000000000000000000000000000000000000000000000000000000000",
                    "coinbase" : "0x8888f1f195afa192cfee860698584c030f4c9db1",
                    "difficulty" : "0x020080",
                    "extraData" : "",
                    "gasLimit" : "0x2fefba",
                    "gasUsed" : "0xa78a",
                    "hash" : "0xcb89aaf0e88d38ca76509d264c2d1c9c3efb062367e28d87cb457901d8d7295a",
                    "mixHash" : "0xb2aaffbd3068280b23e31dc43403ac707df94d1aa0fb7e249430a4df6c96bbfd",
                    "nonce" : "0xf0c3c9b1361fb2b4",
                    "number" : "0x03",
                    "parentHash" : "0xa97b9d4f3f068db71d635fe71eeed6c9146fcebcf75b347d9b3b9c82af601099",
                    "receiptTrie" : "0x90d46b126d3754720be652abdcd11fc235a4efb0d4b0a1f23757b072b3ac147e",
                    "stateRoot" : "0x8bacd4e5b7a9cfd91555030f7e96881dc2c65c68bcc19da88dc61ca0a0af581d",
                    "timestamp" : "0x5d8b714b",
                    "transactionsTrie" : "0xdc4835e461e554b15b7cff146b8f5e4790884dc5b95ba55dcdb9413324e8e9d1",
                    "uncleHash" : "0x1dcc4de8dec75d7aab85b567b6ccd41ad312451b948a7413f0a142fd40d49347"
                },
                "blocknumber" : "3",
                "chainname" : "B",
                "rlp" : "0xf902c7f901f9a0a97b9d4f3f068db71d635fe71eeed6c9146fcebcf75b347d9b3b9c82af601099a01dcc4de8dec75d7aab85b567b6ccd41ad312451b948a7413f0a142fd40d49347948888f1f195afa192cfee860698584c030f4c9db1a08bacd4e5b7a9cfd91555030f7e96881dc2c65c68bcc19da88dc61ca0a0af581da0dc4835e461e554b15b7cff146b8f5e4790884dc5b95ba55dcdb9413324e8e9d1a090d46b126d3754720be652abdcd11fc235a4efb0d4b0a1f23757b072b3ac147eb90100000000000000000000000000000000000000000000000000000000000000000000000000000000000000000000000000000000000000000000000000000000000000000000000000000000000000000000000000000000000000000000000000000000000000000000000000000000000000000000000000000000000000000000000000000000000000000000000000000000000000000000000000000000000000000000000000000000000000000000000000000000000000000000000000000000000000000000000000000000000000000000000000000000000000000000000000000000000000000000000000000000000000000000000000000000008302008003832fefba82a78a845d8b714b80a0b2aaffbd3068280b23e31dc43403ac707df94d1aa0fb7e249430a4df6c96bbfd88f0c3c9b1361fb2b4f8c8f86402018304bced94a95e7baea6a6c7c4c2dfeb977efac326af552d876484345345401ca001b915c97ee89b7016ee84e5466b4cd53977ace84e8dd3e9030652862e722ea9a0367362887662049d155f976aedec5a5c4083b88bb0761b889ef8961f83fc6493f86003018304bced94095e7baea6a6c7c4c2dfeb977efac326af552d8714801ca0f744123591e70b1daa1c642f5d229b1aff459c3fc3e14bb883cc3963b3baefafa079a36255b16361f7c101ed3144f1f97308731ddffa6dab8c3304918d6b937007c0",
                "transactions" : [
                    {
                        "data" : "0x34534540",
                        "gasLimit" : "0x04bced",
                        "gasPrice" : "0x01",
                        "nonce" : "0x02",
                        "r" : "0x01b915c97ee89b7016ee84e5466b4cd53977ace84e8dd3e9030652862e722ea9",
                        "s" : "0x367362887662049d155f976aedec5a5c4083b88bb0761b889ef8961f83fc6493",
                        "to" : "0xa95e7baea6a6c7c4c2dfeb977efac326af552d87",
                        "v" : "0x1c",
                        "value" : "0x64"
                    },
                    {
                        "data" : "0x",
                        "gasLimit" : "0x04bced",
                        "gasPrice" : "0x01",
                        "nonce" : "0x03",
                        "r" : "0xf744123591e70b1daa1c642f5d229b1aff459c3fc3e14bb883cc3963b3baefaf",
                        "s" : "0x79a36255b16361f7c101ed3144f1f97308731ddffa6dab8c3304918d6b937007",
                        "to" : "0x095e7baea6a6c7c4c2dfeb977efac326af552d87",
                        "v" : "0x1c",
                        "value" : "0x14"
                    }
                ],
                "uncleHeaders" : [
                ]
            },
            {
                "blockHeader" : {
                    "bloom" : "0x00000000000000000000000000000000000000000000000000000000000000000000000000000000000000000000000000000000000000000000000000000000000000000000000000000000000000000000000000000000000000000000000000000000000000000000000000000000000000000000000000000000000000000000000000000000000000000000000000000000000000000000000000000000000000000000000000000000000000000000000000000000000000000000000000000000000000000000000000000000000000000000000000000000000000000000000000000000000000000000000000000000000000000000000000000000",
                    "coinbase" : "0x8888f1f195afa192cfee860698584c030f4c9db1",
                    "difficulty" : "0x0200c0",
                    "extraData" : "",
                    "gasLimit" : "0x2fefba",
                    "gasUsed" : "0x00",
                    "hash" : "0x30deffd59d890e95aa19fb379498ec43936c67a69b401d0a8bf87dc565f7281a",
                    "mixHash" : "0xcfca42c46f64639e58abac966f55b9230dfeb289b9d8d799903e1971fc353f76",
                    "nonce" : "0x43ba78da0e60214d",
                    "number" : "0x04",
                    "parentHash" : "0xcb89aaf0e88d38ca76509d264c2d1c9c3efb062367e28d87cb457901d8d7295a",
                    "receiptTrie" : "0x56e81f171bcc55a6ff8345e692c0f86e5b48e01b996cadc001622fb5e363b421",
                    "stateRoot" : "0x3513e9b9afc93d407ae8a146ab6248b6b652ab0d433d7503489e7d7e50852f71",
                    "timestamp" : "0x5d8b714c",
                    "transactionsTrie" : "0x56e81f171bcc55a6ff8345e692c0f86e5b48e01b996cadc001622fb5e363b421",
                    "uncleHash" : "0x1dcc4de8dec75d7aab85b567b6ccd41ad312451b948a7413f0a142fd40d49347"
                },
                "blocknumber" : "4",
                "chainname" : "B",
                "rlp" : "0xf901fcf901f7a0cb89aaf0e88d38ca76509d264c2d1c9c3efb062367e28d87cb457901d8d7295aa01dcc4de8dec75d7aab85b567b6ccd41ad312451b948a7413f0a142fd40d49347948888f1f195afa192cfee860698584c030f4c9db1a03513e9b9afc93d407ae8a146ab6248b6b652ab0d433d7503489e7d7e50852f71a056e81f171bcc55a6ff8345e692c0f86e5b48e01b996cadc001622fb5e363b421a056e81f171bcc55a6ff8345e692c0f86e5b48e01b996cadc001622fb5e363b421b9010000000000000000000000000000000000000000000000000000000000000000000000000000000000000000000000000000000000000000000000000000000000000000000000000000000000000000000000000000000000000000000000000000000000000000000000000000000000000000000000000000000000000000000000000000000000000000000000000000000000000000000000000000000000000000000000000000000000000000000000000000000000000000000000000000000000000000000000000000000000000000000000000000000000000000000000000000000000000000000000000000000000000000000000000000000000830200c004832fefba80845d8b714c80a0cfca42c46f64639e58abac966f55b9230dfeb289b9d8d799903e1971fc353f768843ba78da0e60214dc0c0",
                "transactions" : [
                ],
                "uncleHeaders" : [
                ]
            }
        ],
        "genesisBlockHeader" : {
            "bloom" : "0x00000000000000000000000000000000000000000000000000000000000000000000000000000000000000000000000000000000000000000000000000000000000000000000000000000000000000000000000000000000000000000000000000000000000000000000000000000000000000000000000000000000000000000000000000000000000000000000000000000000000000000000000000000000000000000000000000000000000000000000000000000000000000000000000000000000000000000000000000000000000000000000000000000000000000000000000000000000000000000000000000000000000000000000000000000000",
            "coinbase" : "0x8888f1f195afa192cfee860698584c030f4c9db1",
            "difficulty" : "0x020000",
            "extraData" : "0x42",
            "gasLimit" : "0x2fefd8",
            "gasUsed" : "0x00",
            "hash" : "0x5fe820cd7eaea7e661d919a12ef6d5f075c74af92902d36c303582bc0361d2b1",
            "mixHash" : "0x56e81f171bcc55a6ff8345e692c0f86e5b48e01b996cadc001622fb5e363b421",
            "nonce" : "0x0102030405060708",
            "number" : "0x00",
            "parentHash" : "0x0000000000000000000000000000000000000000000000000000000000000000",
            "receiptTrie" : "0x56e81f171bcc55a6ff8345e692c0f86e5b48e01b996cadc001622fb5e363b421",
            "stateRoot" : "0xe40304cc97ba8f8f1cbd9a5968721dfa6c852fc9ad4b83040351fda98fb850d4",
            "timestamp" : "0x54c98c81",
            "transactionsTrie" : "0x56e81f171bcc55a6ff8345e692c0f86e5b48e01b996cadc001622fb5e363b421",
            "uncleHash" : "0x1dcc4de8dec75d7aab85b567b6ccd41ad312451b948a7413f0a142fd40d49347"
        },
        "genesisRLP" : "0xf901fcf901f7a00000000000000000000000000000000000000000000000000000000000000000a01dcc4de8dec75d7aab85b567b6ccd41ad312451b948a7413f0a142fd40d49347948888f1f195afa192cfee860698584c030f4c9db1a0e40304cc97ba8f8f1cbd9a5968721dfa6c852fc9ad4b83040351fda98fb850d4a056e81f171bcc55a6ff8345e692c0f86e5b48e01b996cadc001622fb5e363b421a056e81f171bcc55a6ff8345e692c0f86e5b48e01b996cadc001622fb5e363b421b90100000000000000000000000000000000000000000000000000000000000000000000000000000000000000000000000000000000000000000000000000000000000000000000000000000000000000000000000000000000000000000000000000000000000000000000000000000000000000000000000000000000000000000000000000000000000000000000000000000000000000000000000000000000000000000000000000000000000000000000000000000000000000000000000000000000000000000000000000000000000000000000000000000000000000000000000000000000000000000000000000000000000000000000000000000000008302000080832fefd8808454c98c8142a056e81f171bcc55a6ff8345e692c0f86e5b48e01b996cadc001622fb5e363b421880102030405060708c0c0",
        "lastblockhash" : "0x30deffd59d890e95aa19fb379498ec43936c67a69b401d0a8bf87dc565f7281a",
        "network" : "Singularity",
        "postState" : {
            "0x095e7baea6a6c7c4c2dfeb977efac326af552d87" : {
                "balance" : "0x09184e72a078",
                "code" : "0x60014060015500",
                "nonce" : "0x00",
                "storage" : {
                    "0x01" : "0x925051dd40058767a1a0afc5334b9bc390468d4a08db7f53deca2af2d163939b"
                }
            },
            "0x8888f1f195afa192cfee860698584c030f4c9db1" : {
                "balance" : "0x6f05b59d3b2199d4",
                "code" : "",
                "nonce" : "0x00",
                "storage" : {
                }
            },
            "0xa94f5374fce5edbc8e2a8697c15331677e6ebf0b" : {
                "balance" : "0x09184e7104ec",
                "code" : "",
                "nonce" : "0x04",
                "storage" : {
                }
            },
            "0xa95e7baea6a6c7c4c2dfeb977efac326af552d87" : {
                "balance" : "0xc8",
                "code" : "",
                "nonce" : "0x00",
                "storage" : {
                }
            }
        },
        "pre" : {
            "0x095e7baea6a6c7c4c2dfeb977efac326af552d87" : {
                "balance" : "0x09184e72a000",
                "code" : "0x60014060015500",
                "nonce" : "0x00",
                "storage" : {
                }
            },
            "0xa94f5374fce5edbc8e2a8697c15331677e6ebf0b" : {
                "balance" : "0x09184e72a000",
                "code" : "",
                "nonce" : "0x00",
                "storage" : {
                }
            }
        },
        "sealEngine" : "Ethash"
    }
}