{
    "lotsOfLeafs_Singularity" : {
        "_info" : {
            "comment" : "",
            "filledwith" : "testeth 1.7.0-alpha.2-8+commit.86bb4068.dirty",
            "lllcversion" : "Version: 0.5.12-develop.2019.9.13+commit.2d601a4f.Linux.g++",
            "source" : "src/BlockchainTestsFiller/ValidBlocks/bcTotalDifficultyTest/lotsOfLeafsFiller.json",
            "sourceHash" : "c26ff26516675b6e7416f598aa36732fbc4bf6626fad221ce93e154fdb851991"
        },
        "blocks" : [
            {
                "blockHeader" : {
                    "bloom" : "0x00000000000000000000000000000000000000000000000000000000000000000000000000000000000000000000000000000000000000000000000000000000000000000000000000000000000000000000000000000000000000000000000000000000000000000000000000000000000000000000000000000000000000000000000000000000000000000000000000000000000000000000000000000000000000000000000000000000000000000000000000000000000000000000000000000000000000000000000000000000000000000000000000000000000000000000000000000000000000000000000000000000000000000000000000000000",
                    "coinbase" : "0x8888f1f195afa192cfee860698584c030f4c9db1",
                    "difficulty" : "0x035b50",
                    "extraData" : "",
                    "gasLimit" : "0x2fefba",
                    "gasUsed" : "0x5208",
                    "hash" : "0xf849f6213634ff8b681af2939738afd62131e5f1aa6689dabe7f14973240d347",
                    "mixHash" : "0xceaf156a95b3649e49f4d05d3950c105a884301cbd9aa23afcb93025ae818c4f",
                    "nonce" : "0xd928680782fa0594",
                    "number" : "0x01",
                    "parentHash" : "0x6d991da1db456d86ca4438279b25d771e8e8d4fd288be2f2bc3a49d6b04f29ee",
                    "receiptTrie" : "0x056b23fbba480696b65fe5a59b8f2148a1299103c4f57df839233af2cf4ca2d2",
                    "stateRoot" : "0xc4c180ffe5b334f70df53ceaeb79553b8121234b35ae63afcbbd9a283ab20bab",
                    "timestamp" : "0x5d8b74f1",
                    "transactionsTrie" : "0x21ca11429aca1bd82ce042ca3f678e5851d4d40dd6ba1ba9676d828977745adc",
                    "uncleHash" : "0x1dcc4de8dec75d7aab85b567b6ccd41ad312451b948a7413f0a142fd40d49347"
                },
                "blocknumber" : "1",
                "rlp" : "0xf90261f901f9a06d991da1db456d86ca4438279b25d771e8e8d4fd288be2f2bc3a49d6b04f29eea01dcc4de8dec75d7aab85b567b6ccd41ad312451b948a7413f0a142fd40d49347948888f1f195afa192cfee860698584c030f4c9db1a0c4c180ffe5b334f70df53ceaeb79553b8121234b35ae63afcbbd9a283ab20baba021ca11429aca1bd82ce042ca3f678e5851d4d40dd6ba1ba9676d828977745adca0056b23fbba480696b65fe5a59b8f2148a1299103c4f57df839233af2cf4ca2d2b901000000000000000000000000000000000000000000000000000000000000000000000000000000000000000000000000000000000000000000000000000000000000000000000000000000000000000000000000000000000000000000000000000000000000000000000000000000000000000000000000000000000000000000000000000000000000000000000000000000000000000000000000000000000000000000000000000000000000000000000000000000000000000000000000000000000000000000000000000000000000000000000000000000000000000000000000000000000000000000000000000000000000000000000000000000000083035b5001832fefba825208845d8b74f180a0ceaf156a95b3649e49f4d05d3950c105a884301cbd9aa23afcb93025ae818c4f88d928680782fa0594f862f86080018304cb2f94095e7baea6a6c7c4c2dfeb977efac326af552d8780801ca0d8c3d8bdd11779b7fa8b672699646f6c62e7637f90ae50216936688cd060d5aca013c873b28a04a51026e9692c93e0f20d69109ba1972d58057d1e3a195f41a727c0",
                "transactions" : [
                    {
                        "data" : "0x",
                        "gasLimit" : "0x04cb2f",
                        "gasPrice" : "0x01",
                        "nonce" : "0x00",
                        "r" : "0xd8c3d8bdd11779b7fa8b672699646f6c62e7637f90ae50216936688cd060d5ac",
                        "s" : "0x13c873b28a04a51026e9692c93e0f20d69109ba1972d58057d1e3a195f41a727",
                        "to" : "0x095e7baea6a6c7c4c2dfeb977efac326af552d87",
                        "v" : "0x1c",
                        "value" : "0x00"
                    }
                ],
                "uncleHeaders" : [
                ]
            },
            {
                "blockHeader" : {
                    "bloom" : "0x00000000000000000000000000000000000000000000000000000000000000000000000000000000000000000000000000000000000000000000000000000000000000000000000000000000000000000000000000000000000000000000000000000000000000000000000000000000000000000000000000000000000000000000000000000000000000000000000000000000000000000000000000000000000000000000000000000000000000000000000000000000000000000000000000000000000000000000000000000000000000000000000000000000000000000000000000000000000000000000000000000000000000000000000000000000",
                    "coinbase" : "0x8888f1f195afa192cfee860698584c030f4c9db1",
                    "difficulty" : "0x035bbb",
                    "extraData" : "",
                    "gasLimit" : "0x2fefba",
                    "gasUsed" : "0x5208",
                    "hash" : "0xf2ce7df508c3ddacb6584f6ad543878343a3027d4718baa1da58883b250158cb",
                    "mixHash" : "0x6cb35a8e15ee8420cf7a6ac872d94d322161b656b83cf993fad2bc27073b9b1b",
                    "nonce" : "0x43387074c1203950",
                    "number" : "0x02",
                    "parentHash" : "0xf849f6213634ff8b681af2939738afd62131e5f1aa6689dabe7f14973240d347",
                    "receiptTrie" : "0x056b23fbba480696b65fe5a59b8f2148a1299103c4f57df839233af2cf4ca2d2",
                    "stateRoot" : "0xf6cffa86ee24f5e1278d39f275b4086c96cb518cb875e9c92cc8c13ff7ab7d92",
                    "timestamp" : "0x5d8b74f2",
                    "transactionsTrie" : "0x0abf4a9e610582d29ac505c389230c598d54e74441f481954249ddc39fe7f9af",
                    "uncleHash" : "0x1dcc4de8dec75d7aab85b567b6ccd41ad312451b948a7413f0a142fd40d49347"
                },
                "blocknumber" : "2",
                "rlp" : "0xf90261f901f9a0f849f6213634ff8b681af2939738afd62131e5f1aa6689dabe7f14973240d347a01dcc4de8dec75d7aab85b567b6ccd41ad312451b948a7413f0a142fd40d49347948888f1f195afa192cfee860698584c030f4c9db1a0f6cffa86ee24f5e1278d39f275b4086c96cb518cb875e9c92cc8c13ff7ab7d92a00abf4a9e610582d29ac505c389230c598d54e74441f481954249ddc39fe7f9afa0056b23fbba480696b65fe5a59b8f2148a1299103c4f57df839233af2cf4ca2d2b901000000000000000000000000000000000000000000000000000000000000000000000000000000000000000000000000000000000000000000000000000000000000000000000000000000000000000000000000000000000000000000000000000000000000000000000000000000000000000000000000000000000000000000000000000000000000000000000000000000000000000000000000000000000000000000000000000000000000000000000000000000000000000000000000000000000000000000000000000000000000000000000000000000000000000000000000000000000000000000000000000000000000000000000000000000000083035bbb02832fefba825208845d8b74f280a06cb35a8e15ee8420cf7a6ac872d94d322161b656b83cf993fad2bc27073b9b1b8843387074c1203950f862f86001018304cb2f94095e7baea6a6c7c4c2dfeb977efac326af552d8780801ba0604ff269abdc5f9caafae2deb24c15d0596033e4e32023f152ea3143dc3faeeaa04f704a5b7f09d0ab97254ad3b21fd53560f18f4d76e6eae2adadcc634320e7b4c0",
                "transactions" : [
                    {
                        "data" : "0x",
                        "gasLimit" : "0x04cb2f",
                        "gasPrice" : "0x01",
                        "nonce" : "0x01",
                        "r" : "0x604ff269abdc5f9caafae2deb24c15d0596033e4e32023f152ea3143dc3faeea",
                        "s" : "0x4f704a5b7f09d0ab97254ad3b21fd53560f18f4d76e6eae2adadcc634320e7b4",
                        "to" : "0x095e7baea6a6c7c4c2dfeb977efac326af552d87",
                        "v" : "0x1b",
                        "value" : "0x00"
                    }
                ],
                "uncleHeaders" : [
                ]
            },
            {
                "blockHeader" : {
                    "bloom" : "0x00000000000000000000000000000000000000000000000000000000000000000000000000000000000000000000000000000000000000000000000000000000000000000000000000000000000000000000000000000000000000000000000000000000000000000000000000000000000000000000000000000000000000000000000000000000000000000000000000000000000000000000000000000000000000000000000000000000000000000000000000000000000000000000000000000000000000000000000000000000000000000000000000000000000000000000000000000000000000000000000000000000000000000000000000000000",
                    "coinbase" : "0x8888f1f195afa192cfee860698584c030f4c9db1",
                    "difficulty" : "0x0356b7",
                    "extraData" : "",
                    "gasLimit" : "0x2fefba",
                    "gasUsed" : "0x5208",
                    "hash" : "0x038fd5dff053308cf95120316b1f320350fac11ec55bd4138d917b21f0ac691f",
                    "mixHash" : "0x31076ea853cd83403f474c55ecd8466e0f016afdd7217c498547cd24e471743c",
                    "nonce" : "0x702ab2b2e92a8f53",
                    "number" : "0x03",
                    "parentHash" : "0xf2ce7df508c3ddacb6584f6ad543878343a3027d4718baa1da58883b250158cb",
                    "receiptTrie" : "0x056b23fbba480696b65fe5a59b8f2148a1299103c4f57df839233af2cf4ca2d2",
                    "stateRoot" : "0x8053a7345725920283f76bcb679791c5c811fef9e3f54743d90034e9cce0d7b8",
                    "timestamp" : "0x5d8b756a",
                    "transactionsTrie" : "0x80d4b46e8fe207267e6c285a3dda9ec5ced32396da0061816fc9c663ec9e378e",
                    "uncleHash" : "0x1dcc4de8dec75d7aab85b567b6ccd41ad312451b948a7413f0a142fd40d49347"
                },
                "blocknumber" : "3",
                "rlp" : "0xf90261f901f9a0f2ce7df508c3ddacb6584f6ad543878343a3027d4718baa1da58883b250158cba01dcc4de8dec75d7aab85b567b6ccd41ad312451b948a7413f0a142fd40d49347948888f1f195afa192cfee860698584c030f4c9db1a08053a7345725920283f76bcb679791c5c811fef9e3f54743d90034e9cce0d7b8a080d4b46e8fe207267e6c285a3dda9ec5ced32396da0061816fc9c663ec9e378ea0056b23fbba480696b65fe5a59b8f2148a1299103c4f57df839233af2cf4ca2d2b9010000000000000000000000000000000000000000000000000000000000000000000000000000000000000000000000000000000000000000000000000000000000000000000000000000000000000000000000000000000000000000000000000000000000000000000000000000000000000000000000000000000000000000000000000000000000000000000000000000000000000000000000000000000000000000000000000000000000000000000000000000000000000000000000000000000000000000000000000000000000000000000000000000000000000000000000000000000000000000000000000000000000000000000000000000000000830356b703832fefba825208845d8b756a80a031076ea853cd83403f474c55ecd8466e0f016afdd7217c498547cd24e471743c88702ab2b2e92a8f53f862f86002018304cb2f94095e7baea6a6c7c4c2dfeb977efac326af552d8701801ca049c097ec19a9bb679b0e274d28ac550908402a04d5d5e97704248d2018cc52dba06372a58cd7c606d7fb0183d4d80b43a385cf7cfb2f0ad21edde9900753c03d60c0",
                "transactions" : [
                    {
                        "data" : "0x",
                        "gasLimit" : "0x04cb2f",
                        "gasPrice" : "0x01",
                        "nonce" : "0x02",
                        "r" : "0x49c097ec19a9bb679b0e274d28ac550908402a04d5d5e97704248d2018cc52db",
                        "s" : "0x6372a58cd7c606d7fb0183d4d80b43a385cf7cfb2f0ad21edde9900753c03d60",
                        "to" : "0x095e7baea6a6c7c4c2dfeb977efac326af552d87",
                        "v" : "0x1c",
                        "value" : "0x01"
                    }
                ],
                "uncleHeaders" : [
                ]
            },
            {
                "blockHeader" : {
                    "bloom" : "0x00000000000000000000000000000000000000000000000000000000000000000000000000000000000000000000000000000000000000000000000000000000000000000000000000000000000000000000000000000000000000000000000000000000000000000000000000000000000000000000000000000000000000000000000000000000000000000000000000000000000000000000000000000000000000000000000000000000000000000000000000000000000000000000000000000000000000000000000000000000000000000000000000000000000000000000000000000000000000000000000000000000000000000000000000000000",
                    "coinbase" : "0x8888f1f195afa192cfee860698584c030f4c9db1",
                    "difficulty" : "0x0356b7",
                    "extraData" : "",
                    "gasLimit" : "0x2fefba",
                    "gasUsed" : "0x00",
                    "hash" : "0x9097695b87f9356c83e589fd44f1822ed1aeb8a846fa09fce2c3f6eee1eee5e3",
                    "mixHash" : "0x69360b659e81971aa3e7f7aa07b28d6ddde7901ca0a119901badd72a26ecd8d0",
                    "nonce" : "0xb48f2799ff4e4a29",
                    "number" : "0x03",
                    "parentHash" : "0xf2ce7df508c3ddacb6584f6ad543878343a3027d4718baa1da58883b250158cb",
                    "receiptTrie" : "0x56e81f171bcc55a6ff8345e692c0f86e5b48e01b996cadc001622fb5e363b421",
                    "stateRoot" : "0x0c2c66a78eb0e38ea6a5b3a693731b0718e20007e8de9e8f0674a21fa8541ba7",
                    "timestamp" : "0x5d8b756a",
                    "transactionsTrie" : "0x56e81f171bcc55a6ff8345e692c0f86e5b48e01b996cadc001622fb5e363b421",
                    "uncleHash" : "0x1dcc4de8dec75d7aab85b567b6ccd41ad312451b948a7413f0a142fd40d49347"
                },
                "blocknumber" : "3",
                "rlp" : "0xf901fcf901f7a0f2ce7df508c3ddacb6584f6ad543878343a3027d4718baa1da58883b250158cba01dcc4de8dec75d7aab85b567b6ccd41ad312451b948a7413f0a142fd40d49347948888f1f195afa192cfee860698584c030f4c9db1a00c2c66a78eb0e38ea6a5b3a693731b0718e20007e8de9e8f0674a21fa8541ba7a056e81f171bcc55a6ff8345e692c0f86e5b48e01b996cadc001622fb5e363b421a056e81f171bcc55a6ff8345e692c0f86e5b48e01b996cadc001622fb5e363b421b9010000000000000000000000000000000000000000000000000000000000000000000000000000000000000000000000000000000000000000000000000000000000000000000000000000000000000000000000000000000000000000000000000000000000000000000000000000000000000000000000000000000000000000000000000000000000000000000000000000000000000000000000000000000000000000000000000000000000000000000000000000000000000000000000000000000000000000000000000000000000000000000000000000000000000000000000000000000000000000000000000000000000000000000000000000000000830356b703832fefba80845d8b756a80a069360b659e81971aa3e7f7aa07b28d6ddde7901ca0a119901badd72a26ecd8d088b48f2799ff4e4a29c0c0",
                "transactions" : [
                ],
                "uncleHeaders" : [
                ]
            },
            {
                "blockHeader" : {
                    "bloom" : "0x00000000000000000000000000000000000000000000000000000000000000000000000000000000000000000000000000000000000000000000000000000000000000000000000000000000000000000000000000000000000000000000000000000000000000000000000000000000000000000000000000000000000000000000000000000000000000000000000000000000000000000000000000000000000000000000000000000000000000000000000000000000000000000000000000000000000000000000000000000000000000000000000000000000000000000000000000000000000000000000000000000000000000000000000000000000",
                    "coinbase" : "0x8888f1f195afa192cfee860698584c030f4c9db1",
                    "difficulty" : "0x0356b7",
                    "extraData" : "",
                    "gasLimit" : "0x2fefba",
                    "gasUsed" : "0x00",
                    "hash" : "0x6b8ffb80830bf5de84c929ff71966908f42a49e2f29721461b8a3d36a2c209c3",
                    "mixHash" : "0xe68747765d0d8a84ec46693de24766d47825647193d57dfa5a80e0ebce641e50",
                    "nonce" : "0x9c5896dea3874cfb",
                    "number" : "0x03",
                    "parentHash" : "0xf2ce7df508c3ddacb6584f6ad543878343a3027d4718baa1da58883b250158cb",
                    "receiptTrie" : "0x56e81f171bcc55a6ff8345e692c0f86e5b48e01b996cadc001622fb5e363b421",
                    "stateRoot" : "0x0c2c66a78eb0e38ea6a5b3a693731b0718e20007e8de9e8f0674a21fa8541ba7",
                    "timestamp" : "0x5d8b756a",
                    "transactionsTrie" : "0x56e81f171bcc55a6ff8345e692c0f86e5b48e01b996cadc001622fb5e363b421",
                    "uncleHash" : "0x1dcc4de8dec75d7aab85b567b6ccd41ad312451b948a7413f0a142fd40d49347"
                },
                "blocknumber" : "3",
                "rlp" : "0xf901fcf901f7a0f2ce7df508c3ddacb6584f6ad543878343a3027d4718baa1da58883b250158cba01dcc4de8dec75d7aab85b567b6ccd41ad312451b948a7413f0a142fd40d49347948888f1f195afa192cfee860698584c030f4c9db1a00c2c66a78eb0e38ea6a5b3a693731b0718e20007e8de9e8f0674a21fa8541ba7a056e81f171bcc55a6ff8345e692c0f86e5b48e01b996cadc001622fb5e363b421a056e81f171bcc55a6ff8345e692c0f86e5b48e01b996cadc001622fb5e363b421b9010000000000000000000000000000000000000000000000000000000000000000000000000000000000000000000000000000000000000000000000000000000000000000000000000000000000000000000000000000000000000000000000000000000000000000000000000000000000000000000000000000000000000000000000000000000000000000000000000000000000000000000000000000000000000000000000000000000000000000000000000000000000000000000000000000000000000000000000000000000000000000000000000000000000000000000000000000000000000000000000000000000000000000000000000000000000830356b703832fefba80845d8b756a80a0e68747765d0d8a84ec46693de24766d47825647193d57dfa5a80e0ebce641e50889c5896dea3874cfbc0c0",
                "transactions" : [
                ],
                "uncleHeaders" : [
                ]
            },
            {
                "blockHeader" : {
                    "bloom" : "0x00000000000000000000000000000000000000000000000000000000000000000000000000000000000000000000000000000000000000000000000000000000000000000000000000000000000000000000000000000000000000000000000000000000000000000000000000000000000000000000000000000000000000000000000000000000000000000000000000000000000000000000000000000000000000000000000000000000000000000000000000000000000000000000000000000000000000000000000000000000000000000000000000000000000000000000000000000000000000000000000000000000000000000000000000000000",
                    "coinbase" : "0x8888f1f195afa192cfee860698584c030f4c9db1",
                    "difficulty" : "0x035c26",
                    "extraData" : "",
                    "gasLimit" : "0x2fefba",
                    "gasUsed" : "0x5208",
                    "hash" : "0xefc8bbd214749f02ac526891b8a108afefd302b20d87462bf51800d3c01f5c2a",
                    "mixHash" : "0xecf04fedc81fc359842f8fd1b0e4389d312c0e92174a1c018754e34b20a23f13",
                    "nonce" : "0x0f9772ae52e3949b",
                    "number" : "0x03",
                    "parentHash" : "0xf2ce7df508c3ddacb6584f6ad543878343a3027d4718baa1da58883b250158cb",
                    "receiptTrie" : "0x056b23fbba480696b65fe5a59b8f2148a1299103c4f57df839233af2cf4ca2d2",
                    "stateRoot" : "0x59c7188fb4c50599d7c446d57245d59d8b189420cc20bc1d3818c63d850ab77a",
                    "timestamp" : "0x5d8b74f7",
                    "transactionsTrie" : "0x6248badbff65ed9910fe53dc4368a1d8db872f00d9b32713d4e876763a5fe96c",
                    "uncleHash" : "0x1dcc4de8dec75d7aab85b567b6ccd41ad312451b948a7413f0a142fd40d49347"
                },
                "blocknumber" : "3",
                "rlp" : "0xf90263f901f9a0f2ce7df508c3ddacb6584f6ad543878343a3027d4718baa1da58883b250158cba01dcc4de8dec75d7aab85b567b6ccd41ad312451b948a7413f0a142fd40d49347948888f1f195afa192cfee860698584c030f4c9db1a059c7188fb4c50599d7c446d57245d59d8b189420cc20bc1d3818c63d850ab77aa06248badbff65ed9910fe53dc4368a1d8db872f00d9b32713d4e876763a5fe96ca0056b23fbba480696b65fe5a59b8f2148a1299103c4f57df839233af2cf4ca2d2b901000000000000000000000000000000000000000000000000000000000000000000000000000000000000000000000000000000000000000000000000000000000000000000000000000000000000000000000000000000000000000000000000000000000000000000000000000000000000000000000000000000000000000000000000000000000000000000000000000000000000000000000000000000000000000000000000000000000000000000000000000000000000000000000000000000000000000000000000000000000000000000000000000000000000000000000000000000000000000000000000000000000000000000000000000000000083035c2603832fefba825208845d8b74f780a0ecf04fedc81fc359842f8fd1b0e4389d312c0e92174a1c018754e34b20a23f13880f9772ae52e3949bf864f86202820d038304cb2f94095e7baea6a6c7c4c2dfeb977efac326af552d8704801ba0fc2548515447aee1b15e9e2f1c1889caa5c43b55a04fd83b6fa6febc865816bba0128812d72c943c7bfd17545c2b353d28712534bda7e362c09b9dcff77c774f9ec0",
                "transactions" : [
                    {
                        "data" : "0x",
                        "gasLimit" : "0x04cb2f",
                        "gasPrice" : "0x0d03",
                        "nonce" : "0x02",
                        "r" : "0xfc2548515447aee1b15e9e2f1c1889caa5c43b55a04fd83b6fa6febc865816bb",
                        "s" : "0x128812d72c943c7bfd17545c2b353d28712534bda7e362c09b9dcff77c774f9e",
                        "to" : "0x095e7baea6a6c7c4c2dfeb977efac326af552d87",
                        "v" : "0x1b",
                        "value" : "0x04"
                    }
                ],
                "uncleHeaders" : [
                ]
            },
            {
                "blockHeader" : {
                    "bloom" : "0x00000000000000000000000000000000000000000000000000000000000000000000000000000000000000000000000000000000000000000000000000000000000000000000000000000000000000000000000000000000000000000000000000000000000000000000000000000000000000000000000000000000000000000000000000000000000000000000000000000000000000000000000000000000000000000000000000000000000000000000000000000000000000000000000000000000000000000000000000000000000000000000000000000000000000000000000000000000000000000000000000000000000000000000000000000000",
                    "coinbase" : "0x8888f1f195afa192cfee860698584c030f4c9db1",
                    "difficulty" : "0x0356b7",
                    "extraData" : "",
                    "gasLimit" : "0x2fefba",
                    "gasUsed" : "0x5248",
                    "hash" : "0x561fcebbccb7ba3d4f8ba005f5864c5f53e1b39c6e497caf9c1e1d3077395851",
                    "mixHash" : "0xf21f10ea0b7f47cc8453c1bcfd9d06974342d6280b1982c170bc93c95e837e0b",
                    "nonce" : "0x0c60e2d76e00bdce",
                    "number" : "0x03",
                    "parentHash" : "0xf2ce7df508c3ddacb6584f6ad543878343a3027d4718baa1da58883b250158cb",
                    "receiptTrie" : "0x0283bc637c8509fb7f2c2ea8fea3ea4492b8f576fc05ad4efb828f7a736275e0",
                    "stateRoot" : "0x977ad0cea67dc9d80b838a398bb402bd5667b08fa414dd5795c150d1e74f95fd",
                    "timestamp" : "0x5d8b756a",
                    "transactionsTrie" : "0x15f7fc6985115c0094cdb4d454c1cf7925c0bbfede919337af9d2f67e8460f88",
                    "uncleHash" : "0x1dcc4de8dec75d7aab85b567b6ccd41ad312451b948a7413f0a142fd40d49347"
                },
                "blocknumber" : "3",
                "rlp" : "0xf90265f901f9a0f2ce7df508c3ddacb6584f6ad543878343a3027d4718baa1da58883b250158cba01dcc4de8dec75d7aab85b567b6ccd41ad312451b948a7413f0a142fd40d49347948888f1f195afa192cfee860698584c030f4c9db1a0977ad0cea67dc9d80b838a398bb402bd5667b08fa414dd5795c150d1e74f95fda015f7fc6985115c0094cdb4d454c1cf7925c0bbfede919337af9d2f67e8460f88a00283bc637c8509fb7f2c2ea8fea3ea4492b8f576fc05ad4efb828f7a736275e0b9010000000000000000000000000000000000000000000000000000000000000000000000000000000000000000000000000000000000000000000000000000000000000000000000000000000000000000000000000000000000000000000000000000000000000000000000000000000000000000000000000000000000000000000000000000000000000000000000000000000000000000000000000000000000000000000000000000000000000000000000000000000000000000000000000000000000000000000000000000000000000000000000000000000000000000000000000000000000000000000000000000000000000000000000000000000000830356b703832fefba825248845d8b756a80a0f21f10ea0b7f47cc8453c1bcfd9d06974342d6280b1982c170bc93c95e837e0b880c60e2d76e00bdcef866f86402018304cb2f94095e7baea6a6c7c4c2dfeb977efac326af552d870584446346341ba038bb0b4c094d0f4e3ad6ea586f78321b8199330a3399a9121e91e7b7b36c199fa010f625e63324d66a3cbe2296d1d1d435a01384d060d8e66f9ddad186a25171a5c0",
                "transactions" : [
                    {
                        "data" : "0x44634634",
                        "gasLimit" : "0x04cb2f",
                        "gasPrice" : "0x01",
                        "nonce" : "0x02",
                        "r" : "0x38bb0b4c094d0f4e3ad6ea586f78321b8199330a3399a9121e91e7b7b36c199f",
                        "s" : "0x10f625e63324d66a3cbe2296d1d1d435a01384d060d8e66f9ddad186a25171a5",
                        "to" : "0x095e7baea6a6c7c4c2dfeb977efac326af552d87",
                        "v" : "0x1b",
                        "value" : "0x05"
                    }
                ],
                "uncleHeaders" : [
                ]
            },
            {
                "blockHeader" : {
                    "bloom" : "0x00000000000000000000000000000000000000000000000000000000000000000000000000000000000000000000000000000000000000000000000000000000000000000000000000000000000000000000000000000000000000000000000000000000000000000000000000000000000000000000000000000000000000000000000000000000000000000000000000000000000000000000000000000000000000000000000000000000000000000000000000000000000000000000000000000000000000000000000000000000000000000000000000000000000000000000000000000000000000000000000000000000000000000000000000000000",
                    "coinbase" : "0x8888f1f195afa192cfee860698584c030f4c9db1",
                    "difficulty" : "0x0356b7",
                    "extraData" : "",
                    "gasLimit" : "0x2fefba",
                    "gasUsed" : "0x5208",
                    "hash" : "0x187f82b2026bb7a3f948056e71a0f2af133fde620877c272392a921853cd9205",
                    "mixHash" : "0x77029171bf0c51d13a519e1d92b97f0d296d91d741b3f9f82a175b8bfb193982",
                    "nonce" : "0x430ea69d4edd1bf9",
                    "number" : "0x03",
                    "parentHash" : "0xf2ce7df508c3ddacb6584f6ad543878343a3027d4718baa1da58883b250158cb",
                    "receiptTrie" : "0x056b23fbba480696b65fe5a59b8f2148a1299103c4f57df839233af2cf4ca2d2",
                    "stateRoot" : "0xa9ae17c702a3b4513bb9dd6f4cbace10378c4eeb645a4e3a129f98eac8637156",
                    "timestamp" : "0x5d8b756a",
                    "transactionsTrie" : "0x75fbaa0d21261c250d72804548590a0dcaf3f1849fcb9036eae67a1ea1328de3",
                    "uncleHash" : "0x1dcc4de8dec75d7aab85b567b6ccd41ad312451b948a7413f0a142fd40d49347"
                },
                "blocknumber" : "3",
                "rlp" : "0xf90260f901f9a0f2ce7df508c3ddacb6584f6ad543878343a3027d4718baa1da58883b250158cba01dcc4de8dec75d7aab85b567b6ccd41ad312451b948a7413f0a142fd40d49347948888f1f195afa192cfee860698584c030f4c9db1a0a9ae17c702a3b4513bb9dd6f4cbace10378c4eeb645a4e3a129f98eac8637156a075fbaa0d21261c250d72804548590a0dcaf3f1849fcb9036eae67a1ea1328de3a0056b23fbba480696b65fe5a59b8f2148a1299103c4f57df839233af2cf4ca2d2b9010000000000000000000000000000000000000000000000000000000000000000000000000000000000000000000000000000000000000000000000000000000000000000000000000000000000000000000000000000000000000000000000000000000000000000000000000000000000000000000000000000000000000000000000000000000000000000000000000000000000000000000000000000000000000000000000000000000000000000000000000000000000000000000000000000000000000000000000000000000000000000000000000000000000000000000000000000000000000000000000000000000000000000000000000000000000830356b703832fefba825208845d8b756a80a077029171bf0c51d13a519e1d92b97f0d296d91d741b3f9f82a175b8bfb19398288430ea69d4edd1bf9f861f85f020182795394095e7baea6a6c7c4c2dfeb977efac326af552d8706801ba0f0270ab1d37cefd527be86ad9914256506d919c1da6b825044ece7bb7f32b6bda0347c1adf10978e380be412dfb3f9e44d834aa17536abf14f15f61692ca60b24dc0",
                "transactions" : [
                    {
                        "data" : "0x",
                        "gasLimit" : "0x7953",
                        "gasPrice" : "0x01",
                        "nonce" : "0x02",
                        "r" : "0xf0270ab1d37cefd527be86ad9914256506d919c1da6b825044ece7bb7f32b6bd",
                        "s" : "0x347c1adf10978e380be412dfb3f9e44d834aa17536abf14f15f61692ca60b24d",
                        "to" : "0x095e7baea6a6c7c4c2dfeb977efac326af552d87",
                        "v" : "0x1b",
                        "value" : "0x06"
                    }
                ],
                "uncleHeaders" : [
                ]
            },
            {
                "blockHeader" : {
                    "bloom" : "0x00000000000000000000000000000000000000000000000000000000000000000000000000000000000000000000000000000000000000000000000000000000000000000000000000000000000000000000000000000000000000000000000000000000000000000000000000000000000000000000000000000000000000000000000000000000000000000000000000000000000000000000000000000000000000000000000000000000000000000000000000000000000000000000000000000000000000000000000000000000000000000000000000000000000000000000000000000000000000000000000000000000000000000000000000000000",
                    "coinbase" : "0x8888f1f195afa192cfee860698584c030f4c9db1",
                    "difficulty" : "0x0356b7",
                    "extraData" : "",
                    "gasLimit" : "0x2fefba",
                    "gasUsed" : "0x5248",
                    "hash" : "0x8475d86433e63bb4d2e4a0f2816039cfb9bd2c464e8bd67694b5773702b7d060",
                    "mixHash" : "0x04840a888550c6692b2a9e68cdf31d9b9b77c743d9f33a50a753d42d4442cdf3",
                    "nonce" : "0x1a06b9ebdb3404ca",
                    "number" : "0x03",
                    "parentHash" : "0xf2ce7df508c3ddacb6584f6ad543878343a3027d4718baa1da58883b250158cb",
                    "receiptTrie" : "0x0283bc637c8509fb7f2c2ea8fea3ea4492b8f576fc05ad4efb828f7a736275e0",
                    "stateRoot" : "0x38dfb15be716a13936ba4d3cfdc324867dc667a591ca363aa39d9429cf0630b5",
                    "timestamp" : "0x5d8b756a",
                    "transactionsTrie" : "0x8669745990c090d4f9b0fc2211287a67bb5d00adf5dd6453d833223533ad5791",
                    "uncleHash" : "0x1dcc4de8dec75d7aab85b567b6ccd41ad312451b948a7413f0a142fd40d49347"
                },
                "blocknumber" : "3",
                "rlp" : "0xf90264f901f9a0f2ce7df508c3ddacb6584f6ad543878343a3027d4718baa1da58883b250158cba01dcc4de8dec75d7aab85b567b6ccd41ad312451b948a7413f0a142fd40d49347948888f1f195afa192cfee860698584c030f4c9db1a038dfb15be716a13936ba4d3cfdc324867dc667a591ca363aa39d9429cf0630b5a08669745990c090d4f9b0fc2211287a67bb5d00adf5dd6453d833223533ad5791a00283bc637c8509fb7f2c2ea8fea3ea4492b8f576fc05ad4efb828f7a736275e0b9010000000000000000000000000000000000000000000000000000000000000000000000000000000000000000000000000000000000000000000000000000000000000000000000000000000000000000000000000000000000000000000000000000000000000000000000000000000000000000000000000000000000000000000000000000000000000000000000000000000000000000000000000000000000000000000000000000000000000000000000000000000000000000000000000000000000000000000000000000000000000000000000000000000000000000000000000000000000000000000000000000000000000000000000000000000000830356b703832fefba825248845d8b756a80a004840a888550c6692b2a9e68cdf31d9b9b77c743d9f33a50a753d42d4442cdf3881a06b9ebdb3404caf865f8630201827b1594095e7baea6a6c7c4c2dfeb977efac326af552d870784345345401ca0ce87045a5369aba7265ad97dc16fe942ceff7d0fc48ad0f060d0ee818e1fab48a06cad108943efb7508c9c4d51b678cdfed19de5bdbdc84f2344f2add6a4ef01ffc0",
                "transactions" : [
                    {
                        "data" : "0x34534540",
                        "gasLimit" : "0x7b15",
                        "gasPrice" : "0x01",
                        "nonce" : "0x02",
                        "r" : "0xce87045a5369aba7265ad97dc16fe942ceff7d0fc48ad0f060d0ee818e1fab48",
                        "s" : "0x6cad108943efb7508c9c4d51b678cdfed19de5bdbdc84f2344f2add6a4ef01ff",
                        "to" : "0x095e7baea6a6c7c4c2dfeb977efac326af552d87",
                        "v" : "0x1c",
                        "value" : "0x07"
                    }
                ],
                "uncleHeaders" : [
                ]
            },
            {
                "blockHeader" : {
                    "bloom" : "0x00000000000000000000000000000000000000000000000000000000000000000000000000000000000000000000000000000000000000000000000000000000000000000000000000000000000000000000000000000000000000000000000000000000000000000000000000000000000000000000000000000000000000000000000000000000000000000000000000000000000000000000000000000000000000000000000000000000000000000000000000000000000000000000000000000000000000000000000000000000000000000000000000000000000000000000000000000000000000000000000000000000000000000000000000000000",
                    "coinbase" : "0x8888f1f195afa192cfee860698584c030f4c9db1",
                    "difficulty" : "0x0356b7",
                    "extraData" : "",
                    "gasLimit" : "0x2fefba",
                    "gasUsed" : "0x00",
                    "hash" : "0xf4693676e16fbab3e505078883c93ee05a79d4150672447823ccaf77cb44e437",
                    "mixHash" : "0xcbdb673aaa12e2c4cdd82beffa25b6feb67f427e320e0ebbefda90e7e9cf7947",
                    "nonce" : "0x5e731d478158fbdf",
                    "number" : "0x03",
                    "parentHash" : "0xf2ce7df508c3ddacb6584f6ad543878343a3027d4718baa1da58883b250158cb",
                    "receiptTrie" : "0x56e81f171bcc55a6ff8345e692c0f86e5b48e01b996cadc001622fb5e363b421",
                    "stateRoot" : "0x0c2c66a78eb0e38ea6a5b3a693731b0718e20007e8de9e8f0674a21fa8541ba7",
                    "timestamp" : "0x5d8b756a",
                    "transactionsTrie" : "0x56e81f171bcc55a6ff8345e692c0f86e5b48e01b996cadc001622fb5e363b421",
                    "uncleHash" : "0x1dcc4de8dec75d7aab85b567b6ccd41ad312451b948a7413f0a142fd40d49347"
                },
                "blocknumber" : "3",
                "rlp" : "0xf901fcf901f7a0f2ce7df508c3ddacb6584f6ad543878343a3027d4718baa1da58883b250158cba01dcc4de8dec75d7aab85b567b6ccd41ad312451b948a7413f0a142fd40d49347948888f1f195afa192cfee860698584c030f4c9db1a00c2c66a78eb0e38ea6a5b3a693731b0718e20007e8de9e8f0674a21fa8541ba7a056e81f171bcc55a6ff8345e692c0f86e5b48e01b996cadc001622fb5e363b421a056e81f171bcc55a6ff8345e692c0f86e5b48e01b996cadc001622fb5e363b421b9010000000000000000000000000000000000000000000000000000000000000000000000000000000000000000000000000000000000000000000000000000000000000000000000000000000000000000000000000000000000000000000000000000000000000000000000000000000000000000000000000000000000000000000000000000000000000000000000000000000000000000000000000000000000000000000000000000000000000000000000000000000000000000000000000000000000000000000000000000000000000000000000000000000000000000000000000000000000000000000000000000000000000000000000000000000000830356b703832fefba80845d8b756a80a0cbdb673aaa12e2c4cdd82beffa25b6feb67f427e320e0ebbefda90e7e9cf7947885e731d478158fbdfc0c0",
                "transactions" : [
                ],
                "uncleHeaders" : [
                ]
            },
            {
                "blockHeader" : {
                    "bloom" : "0x00000000000000000000000000000000000000000000000000000000000000000000000000000000000000000000000000000000000000000000000000000000000000000000000000000000000000000000000000000000000000000000000000000000000000000000000000000000000000000000000000000000000000000000000000000000000000000000000000000000000000000000000000000000000000000000000000000000000000000000000000000000000000000000000000000000000000000000000000000000000000000000000000000000000000000000000000000000000000000000000000000000000000000000000000000000",
                    "coinbase" : "0x8888f1f195afa192cfee860698584c030f4c9db1",
                    "difficulty" : "0x0356b7",
                    "extraData" : "",
                    "gasLimit" : "0x2fefba",
                    "gasUsed" : "0x5208",
                    "hash" : "0x622ac73bc67c4373aff5331b5e5d974d49b3a8f8a08aae0cc4705de1225eae40",
                    "mixHash" : "0xe840f527fbc4853ffd9ca05e6aebd10faea18b5bbae46abdce9df0f1d5632a6b",
                    "nonce" : "0x54c784b05eadd7be",
                    "number" : "0x03",
                    "parentHash" : "0xf2ce7df508c3ddacb6584f6ad543878343a3027d4718baa1da58883b250158cb",
                    "receiptTrie" : "0x056b23fbba480696b65fe5a59b8f2148a1299103c4f57df839233af2cf4ca2d2",
                    "stateRoot" : "0x4a52df456083b838f6b3d36a3bc6084d9f07897efc73697be66ef3279b4648a4",
                    "timestamp" : "0x5d8b756a",
                    "transactionsTrie" : "0xeee8da1032d67fdbdd8a06aae4be0dd76a950314a182b72e9a741e82e7bb3c1b",
                    "uncleHash" : "0x1dcc4de8dec75d7aab85b567b6ccd41ad312451b948a7413f0a142fd40d49347"
                },
                "blocknumber" : "3",
                "rlp" : "0xf90261f901f9a0f2ce7df508c3ddacb6584f6ad543878343a3027d4718baa1da58883b250158cba01dcc4de8dec75d7aab85b567b6ccd41ad312451b948a7413f0a142fd40d49347948888f1f195afa192cfee860698584c030f4c9db1a04a52df456083b838f6b3d36a3bc6084d9f07897efc73697be66ef3279b4648a4a0eee8da1032d67fdbdd8a06aae4be0dd76a950314a182b72e9a741e82e7bb3c1ba0056b23fbba480696b65fe5a59b8f2148a1299103c4f57df839233af2cf4ca2d2b9010000000000000000000000000000000000000000000000000000000000000000000000000000000000000000000000000000000000000000000000000000000000000000000000000000000000000000000000000000000000000000000000000000000000000000000000000000000000000000000000000000000000000000000000000000000000000000000000000000000000000000000000000000000000000000000000000000000000000000000000000000000000000000000000000000000000000000000000000000000000000000000000000000000000000000000000000000000000000000000000000000000000000000000000000000000000830356b703832fefba825208845d8b756a80a0e840f527fbc4853ffd9ca05e6aebd10faea18b5bbae46abdce9df0f1d5632a6b8854c784b05eadd7bef862f86002018304cb2f94795e7baea6a6c7c4c2dfeb977efac326af552d8709801ba09aebe65f630416e9f8d0b6d2767f6f7247fcd91a975ffb43f0cd4ad70c271f26a066deb8ae753107c19abb0cbe97b3252334dc17a985c5d02b490146caf21c8133c0",
                "transactions" : [
                    {
                        "data" : "0x",
                        "gasLimit" : "0x04cb2f",
                        "gasPrice" : "0x01",
                        "nonce" : "0x02",
                        "r" : "0x9aebe65f630416e9f8d0b6d2767f6f7247fcd91a975ffb43f0cd4ad70c271f26",
                        "s" : "0x66deb8ae753107c19abb0cbe97b3252334dc17a985c5d02b490146caf21c8133",
                        "to" : "0x795e7baea6a6c7c4c2dfeb977efac326af552d87",
                        "v" : "0x1b",
                        "value" : "0x09"
                    }
                ],
                "uncleHeaders" : [
                ]
            },
            {
                "blockHeader" : {
                    "bloom" : "0x00000000000000000000000000000000000000000000000000000000000000000000000000000000000000000000000000000000000000000000000000000000000000000000000000000000000000000000000000000000000000000000000000000000000000000000000000000000000000000000000000000000000000000000000000000000000000000000000000000000000000000000000000000000000000000000000000000000000000000000000000000000000000000000000000000000000000000000000000000000000000000000000000000000000000000000000000000000000000000000000000000000000000000000000000000000",
                    "coinbase" : "0x8888f1f195afa192cfee860698584c030f4c9db1",
                    "difficulty" : "0x0356b7",
                    "extraData" : "",
                    "gasLimit" : "0x2fefba",
                    "gasUsed" : "0x00",
                    "hash" : "0x93c6d97b6d74fe7f66074f39588417d195f661406adf8accf793258808813608",
                    "mixHash" : "0xaca101659a1d5d751793a5b4730c8da0c847698a7ae387c862cb1ed182abfecb",
                    "nonce" : "0x867881ea261e79cd",
                    "number" : "0x03",
                    "parentHash" : "0xf2ce7df508c3ddacb6584f6ad543878343a3027d4718baa1da58883b250158cb",
                    "receiptTrie" : "0x56e81f171bcc55a6ff8345e692c0f86e5b48e01b996cadc001622fb5e363b421",
                    "stateRoot" : "0x0c2c66a78eb0e38ea6a5b3a693731b0718e20007e8de9e8f0674a21fa8541ba7",
                    "timestamp" : "0x5d8b756a",
                    "transactionsTrie" : "0x56e81f171bcc55a6ff8345e692c0f86e5b48e01b996cadc001622fb5e363b421",
                    "uncleHash" : "0x1dcc4de8dec75d7aab85b567b6ccd41ad312451b948a7413f0a142fd40d49347"
                },
                "blocknumber" : "3",
                "rlp" : "0xf901fcf901f7a0f2ce7df508c3ddacb6584f6ad543878343a3027d4718baa1da58883b250158cba01dcc4de8dec75d7aab85b567b6ccd41ad312451b948a7413f0a142fd40d49347948888f1f195afa192cfee860698584c030f4c9db1a00c2c66a78eb0e38ea6a5b3a693731b0718e20007e8de9e8f0674a21fa8541ba7a056e81f171bcc55a6ff8345e692c0f86e5b48e01b996cadc001622fb5e363b421a056e81f171bcc55a6ff8345e692c0f86e5b48e01b996cadc001622fb5e363b421b9010000000000000000000000000000000000000000000000000000000000000000000000000000000000000000000000000000000000000000000000000000000000000000000000000000000000000000000000000000000000000000000000000000000000000000000000000000000000000000000000000000000000000000000000000000000000000000000000000000000000000000000000000000000000000000000000000000000000000000000000000000000000000000000000000000000000000000000000000000000000000000000000000000000000000000000000000000000000000000000000000000000000000000000000000000000000830356b703832fefba80845d8b756a80a0aca101659a1d5d751793a5b4730c8da0c847698a7ae387c862cb1ed182abfecb88867881ea261e79cdc0c0",
                "transactions" : [
                ],
                "uncleHeaders" : [
                ]
            },
            {
                "blockHeader" : {
                    "bloom" : "0x00000000000000000000000000000000000000000000000000000000000000000000000000000000000000000000000000000000000000000000000000000000000000000000000000000000000000000000000000000000000000000000000000000000000000000000000000000000000000000000000000000000000000000000000000000000000000000000000000000000000000000000000000000000000000000000000000000000000000000000000000000000000000000000000000000000000000000000000000000000000000000000000000000000000000000000000000000000000000000000000000000000000000000000000000000000",
                    "coinbase" : "0x8888f1f195afa192cfee860698584c030f4c9db1",
                    "difficulty" : "0x0356b7",
                    "extraData" : "",
                    "gasLimit" : "0x2fefba",
                    "gasUsed" : "0x5208",
                    "hash" : "0xf189bc2f82c5ee8953de138ae6b23868d27676785889b56a96676992e7aeea2d",
                    "mixHash" : "0x10ac6995b627fe73fd0ee14a7611561a538c8ca5473e7269eb6c1c481e55dbfb",
                    "nonce" : "0xb909f1501848631f",
                    "number" : "0x03",
                    "parentHash" : "0xf2ce7df508c3ddacb6584f6ad543878343a3027d4718baa1da58883b250158cb",
                    "receiptTrie" : "0x056b23fbba480696b65fe5a59b8f2148a1299103c4f57df839233af2cf4ca2d2",
                    "stateRoot" : "0x9f6777e5ff7bd4d31b60a44b33bda965a1e51849b72f5d7e88fb999f1a525a61",
                    "timestamp" : "0x5d8b756a",
                    "transactionsTrie" : "0x4aecda80a762615dbd4ba2ae6c0634b9042a6efb10aa841b59370258b7f226b5",
                    "uncleHash" : "0x1dcc4de8dec75d7aab85b567b6ccd41ad312451b948a7413f0a142fd40d49347"
                },
                "blocknumber" : "3",
                "rlp" : "0xf90261f901f9a0f2ce7df508c3ddacb6584f6ad543878343a3027d4718baa1da58883b250158cba01dcc4de8dec75d7aab85b567b6ccd41ad312451b948a7413f0a142fd40d49347948888f1f195afa192cfee860698584c030f4c9db1a09f6777e5ff7bd4d31b60a44b33bda965a1e51849b72f5d7e88fb999f1a525a61a04aecda80a762615dbd4ba2ae6c0634b9042a6efb10aa841b59370258b7f226b5a0056b23fbba480696b65fe5a59b8f2148a1299103c4f57df839233af2cf4ca2d2b9010000000000000000000000000000000000000000000000000000000000000000000000000000000000000000000000000000000000000000000000000000000000000000000000000000000000000000000000000000000000000000000000000000000000000000000000000000000000000000000000000000000000000000000000000000000000000000000000000000000000000000000000000000000000000000000000000000000000000000000000000000000000000000000000000000000000000000000000000000000000000000000000000000000000000000000000000000000000000000000000000000000000000000000000000000000000830356b703832fefba825208845d8b756a80a010ac6995b627fe73fd0ee14a7611561a538c8ca5473e7269eb6c1c481e55dbfb88b909f1501848631ff862f860020a8304cb2f94095e7baea6a6c7c4c2dfeb977efac326af552d870b801ba09a5a25de70854a14113a86ce21d085b82198187e82576ef02ebd97598f47a917a07f718d34b77e73aa1ffdcd53da9c609bc4e551d13dc5d6afdfed23dcaf843e4bc0",
                "transactions" : [
                    {
                        "data" : "0x",
                        "gasLimit" : "0x04cb2f",
                        "gasPrice" : "0x0a",
                        "nonce" : "0x02",
                        "r" : "0x9a5a25de70854a14113a86ce21d085b82198187e82576ef02ebd97598f47a917",
                        "s" : "0x7f718d34b77e73aa1ffdcd53da9c609bc4e551d13dc5d6afdfed23dcaf843e4b",
                        "to" : "0x095e7baea6a6c7c4c2dfeb977efac326af552d87",
                        "v" : "0x1b",
                        "value" : "0x0b"
                    }
                ],
                "uncleHeaders" : [
                ]
            }
        ],
        "genesisBlockHeader" : {
            "bloom" : "0x00000000000000000000000000000000000000000000000000000000000000000000000000000000000000000000000000000000000000000000000000000000000000000000000000000000000000000000000000000000000000000000000000000000000000000000000000000000000000000000000000000000000000000000000000000000000000000000000000000000000000000000000000000000000000000000000000000000000000000000000000000000000000000000000000000000000000000000000000000000000000000000000000000000000000000000000000000000000000000000000000000000000000000000000000000000",
            "coinbase" : "0x8888f1f195afa192cfee860698584c030f4c9db1",
            "difficulty" : "0x0386a0",
            "extraData" : "0x42",
            "gasLimit" : "0x2fefd8",
            "gasUsed" : "0x00",
            "hash" : "0x6d991da1db456d86ca4438279b25d771e8e8d4fd288be2f2bc3a49d6b04f29ee",
            "mixHash" : "0x56e81f171bcc55a6ff8345e692c0f86e5b48e01b996cadc001622fb5e363b421",
            "nonce" : "0x0102030405060708",
            "number" : "0x00",
            "parentHash" : "0x0000000000000000000000000000000000000000000000000000000000000000",
            "receiptTrie" : "0x56e81f171bcc55a6ff8345e692c0f86e5b48e01b996cadc001622fb5e363b421",
            "stateRoot" : "0x7dba07d6b448a186e9612e5f737d1c909dce473e53199901a302c00646d523c1",
            "timestamp" : "0x54c98c81",
            "transactionsTrie" : "0x56e81f171bcc55a6ff8345e692c0f86e5b48e01b996cadc001622fb5e363b421",
            "uncleHash" : "0x1dcc4de8dec75d7aab85b567b6ccd41ad312451b948a7413f0a142fd40d49347"
        },
        "genesisRLP" : "0xf901fcf901f7a00000000000000000000000000000000000000000000000000000000000000000a01dcc4de8dec75d7aab85b567b6ccd41ad312451b948a7413f0a142fd40d49347948888f1f195afa192cfee860698584c030f4c9db1a07dba07d6b448a186e9612e5f737d1c909dce473e53199901a302c00646d523c1a056e81f171bcc55a6ff8345e692c0f86e5b48e01b996cadc001622fb5e363b421a056e81f171bcc55a6ff8345e692c0f86e5b48e01b996cadc001622fb5e363b421b9010000000000000000000000000000000000000000000000000000000000000000000000000000000000000000000000000000000000000000000000000000000000000000000000000000000000000000000000000000000000000000000000000000000000000000000000000000000000000000000000000000000000000000000000000000000000000000000000000000000000000000000000000000000000000000000000000000000000000000000000000000000000000000000000000000000000000000000000000000000000000000000000000000000000000000000000000000000000000000000000000000000000000000000000000000000000830386a080832fefd8808454c98c8142a056e81f171bcc55a6ff8345e692c0f86e5b48e01b996cadc001622fb5e363b421880102030405060708c0c0",
        "lastblockhash" : "0xefc8bbd214749f02ac526891b8a108afefd302b20d87462bf51800d3c01f5c2a",
        "network" : "Singularity",
        "postState" : {
            "0x095e7baea6a6c7c4c2dfeb977efac326af552d87" : {
                "balance" : "0x04",
                "code" : "",
                "nonce" : "0x00",
                "storage" : {
                }
            },
            "0x8888f1f195afa192cfee860698584c030f4c9db1" : {
                "balance" : "0x53444835f0840228",
                "code" : "",
                "nonce" : "0x00",
                "storage" : {
                }
            },
            "0xa94f5374fce5edbc8e2a8697c15331677e6ebf0b" : {
                "balance" : "0x09184a469dd4",
                "code" : "",
                "nonce" : "0x03",
                "storage" : {
                }
            }
        },
        "pre" : {
            "0xa94f5374fce5edbc8e2a8697c15331677e6ebf0b" : {
                "balance" : "0x09184e72a000",
                "code" : "",
                "nonce" : "0x00",
                "storage" : {
                }
            }
        },
        "sealEngine" : "Ethash"
    }
}