{
    "uncleBlockAtBlock3afterBlock4_Singularity" : {
        "_info" : {
            "comment" : "",
            "filledwith" : "testeth 1.7.0-alpha.2-8+commit.86bb4068.dirty",
            "lllcversion" : "Version: 0.5.12-develop.2019.9.13+commit.2d601a4f.Linux.g++",
            "source" : "src/BlockchainTestsFiller/ValidBlocks/bcTotalDifficultyTest/uncleBlockAtBlock3afterBlock4Filler.json",
            "sourceHash" : "7ff94c5593c029be9b8ebbc5b4d578461338d7665fd03638a3aecad62c09402e"
        },
        "blocks" : [
            {
                "blockHeader" : {
                    "bloom" : "0x00000000000000000000000000000000000000000000000000000000000000000000000000000000000000000000000000000000000000000000000000000000000000000000000000000000000000000000000000000000000000000000000000000000000000000000000000000000000000000000000000000000000000000000000000000000000000000000000000000000000000000000000000000000000000000000000000000000000000000000000000000000000000000000000000000000000000000000000000000000000000000000000000000000000000000000000000000000000000000000000000000000000000000000000000000000",
                    "coinbase" : "0x8888f1f195afa192cfee860698584c030f4c9db1",
                    "difficulty" : "0x020000",
                    "extraData" : "",
                    "gasLimit" : "0x2fefba",
                    "gasUsed" : "0x5208",
                    "hash" : "0xb1ff065f6328dfc527a7539f23296cf598d31afb0352b17533a892f76588a165",
                    "mixHash" : "0x27b6cb0db5dbc6d64898bc1163dda06fb398ceadc58fe83dcedef963885c1ea5",
                    "nonce" : "0x0b93238b9a6ced72",
                    "number" : "0x01",
                    "parentHash" : "0x5a39ed1020c04d4d84539975b893a4e7c53eab6c2965db8bc3468093a31bc5ae",
                    "receiptTrie" : "0x056b23fbba480696b65fe5a59b8f2148a1299103c4f57df839233af2cf4ca2d2",
                    "stateRoot" : "0xa906bc55ef9e617131a43378f56f3b07edb8fbab7bcc3da5b0b0da1667361b96",
                    "timestamp" : "0x5d8b7317",
                    "transactionsTrie" : "0x1539b31ea0fa548996a2f64f4d86cadb9c97f2c9ca7923218fe0d38ea5ba1c75",
                    "uncleHash" : "0x1dcc4de8dec75d7aab85b567b6ccd41ad312451b948a7413f0a142fd40d49347"
                },
                "blocknumber" : "1",
                "rlp" : "0xf90261f901f9a05a39ed1020c04d4d84539975b893a4e7c53eab6c2965db8bc3468093a31bc5aea01dcc4de8dec75d7aab85b567b6ccd41ad312451b948a7413f0a142fd40d49347948888f1f195afa192cfee860698584c030f4c9db1a0a906bc55ef9e617131a43378f56f3b07edb8fbab7bcc3da5b0b0da1667361b96a01539b31ea0fa548996a2f64f4d86cadb9c97f2c9ca7923218fe0d38ea5ba1c75a0056b23fbba480696b65fe5a59b8f2148a1299103c4f57df839233af2cf4ca2d2b90100000000000000000000000000000000000000000000000000000000000000000000000000000000000000000000000000000000000000000000000000000000000000000000000000000000000000000000000000000000000000000000000000000000000000000000000000000000000000000000000000000000000000000000000000000000000000000000000000000000000000000000000000000000000000000000000000000000000000000000000000000000000000000000000000000000000000000000000000000000000000000000000000000000000000000000000000000000000000000000000000000000000000000000000000000000008302000001832fefba825208845d8b731780a027b6cb0db5dbc6d64898bc1163dda06fb398ceadc58fe83dcedef963885c1ea5880b93238b9a6ced72f862f86080018304cb2f94095e7baea6a6c7c4c2dfeb977efac326af552d8701801ca0f95ddcbc36fb927c225810016715b2ebb5478efcdeb241ee8816e590c1e42559a051012cc60ee68f0d042f6e148550acafb3f306a381e69d003909c30acb15ff56c0",
                "transactions" : [
                    {
                        "data" : "0x",
                        "gasLimit" : "0x04cb2f",
                        "gasPrice" : "0x01",
                        "nonce" : "0x00",
                        "r" : "0xf95ddcbc36fb927c225810016715b2ebb5478efcdeb241ee8816e590c1e42559",
                        "s" : "0x51012cc60ee68f0d042f6e148550acafb3f306a381e69d003909c30acb15ff56",
                        "to" : "0x095e7baea6a6c7c4c2dfeb977efac326af552d87",
                        "v" : "0x1c",
                        "value" : "0x01"
                    }
                ],
                "uncleHeaders" : [
                ]
            },
            {
                "blockHeader" : {
                    "bloom" : "0x00000000000000000000000000000000000000000000000000000000000000000000000000000000000000000000000000000000000000000000000000000000000000000000000000000000000000000000000000000000000000000000000000000000000000000000000000000000000000000000000000000000000000000000000000000000000000000000000000000000000000000000000000000000000000000000000000000000000000000000000000000000000000000000000000000000000000000000000000000000000000000000000000000000000000000000000000000000000000000000000000000000000000000000000000000000",
                    "coinbase" : "0x8888f1f195afa192cfee860698584c030f4c9db1",
                    "difficulty" : "0x020040",
                    "extraData" : "",
                    "gasLimit" : "0x2fefba",
                    "gasUsed" : "0x5208",
                    "hash" : "0x9f050be3f40d571987c82a42f987322a2a44b17f186f21311fa6cd144d6b21d8",
                    "mixHash" : "0x55bc90c240c799dc0a75e7d31d36a1ee10233ea88286c1f170355f74a6624c6b",
                    "nonce" : "0x4bba2e2290cc6449",
                    "number" : "0x02",
                    "parentHash" : "0xb1ff065f6328dfc527a7539f23296cf598d31afb0352b17533a892f76588a165",
                    "receiptTrie" : "0x056b23fbba480696b65fe5a59b8f2148a1299103c4f57df839233af2cf4ca2d2",
                    "stateRoot" : "0xdb8de281cab30cc75708a134c896ee7f5b89d933baf1d8bbfd7d0eceb6813bc1",
                    "timestamp" : "0x5d8b7318",
                    "transactionsTrie" : "0x1dc43d9a5f5fefc8664903164d46adf3a98248d858a885558916dd8d73f5166c",
                    "uncleHash" : "0x1dcc4de8dec75d7aab85b567b6ccd41ad312451b948a7413f0a142fd40d49347"
                },
                "blocknumber" : "2",
                "rlp" : "0xf90261f901f9a0b1ff065f6328dfc527a7539f23296cf598d31afb0352b17533a892f76588a165a01dcc4de8dec75d7aab85b567b6ccd41ad312451b948a7413f0a142fd40d49347948888f1f195afa192cfee860698584c030f4c9db1a0db8de281cab30cc75708a134c896ee7f5b89d933baf1d8bbfd7d0eceb6813bc1a01dc43d9a5f5fefc8664903164d46adf3a98248d858a885558916dd8d73f5166ca0056b23fbba480696b65fe5a59b8f2148a1299103c4f57df839233af2cf4ca2d2b90100000000000000000000000000000000000000000000000000000000000000000000000000000000000000000000000000000000000000000000000000000000000000000000000000000000000000000000000000000000000000000000000000000000000000000000000000000000000000000000000000000000000000000000000000000000000000000000000000000000000000000000000000000000000000000000000000000000000000000000000000000000000000000000000000000000000000000000000000000000000000000000000000000000000000000000000000000000000000000000000000000000000000000000000000000000008302004002832fefba825208845d8b731880a055bc90c240c799dc0a75e7d31d36a1ee10233ea88286c1f170355f74a6624c6b884bba2e2290cc6449f862f86001018304cb2f94095e7baea6a6c7c4c2dfeb977efac326af552d8703801ba028fc37782401456825e0faa1a1f8e1e034d8047f29cf44d21d29f55ce0b8159ea00cac7f7c3e6e141c14e9465a9f1e11705f17f93d637996c9a19f82f69f2aafb8c0",
                "transactions" : [
                    {
                        "data" : "0x",
                        "gasLimit" : "0x04cb2f",
                        "gasPrice" : "0x01",
                        "nonce" : "0x01",
                        "r" : "0x28fc37782401456825e0faa1a1f8e1e034d8047f29cf44d21d29f55ce0b8159e",
                        "s" : "0x0cac7f7c3e6e141c14e9465a9f1e11705f17f93d637996c9a19f82f69f2aafb8",
                        "to" : "0x095e7baea6a6c7c4c2dfeb977efac326af552d87",
                        "v" : "0x1b",
                        "value" : "0x03"
                    }
                ],
                "uncleHeaders" : [
                ]
            },
            {
                "blockHeader" : {
                    "bloom" : "0x00000000000000000000000000000000000000000000000000000000000000000000000000000000000000000000000000000000000000000000000000000000000000000000000000000000000000000000000000000000000000000000000000000000000000000000000000000000000000000000000000000000000000000000000000000000000000000000000000000000000000000000000000000000000000000000000000000000000000000000000000000000000000000000000000000000000000000000000000000000000000000000000000000000000000000000000000000000000000000000000000000000000000000000000000000000",
                    "coinbase" : "0x8888f1f195afa192cfee860698584c030f4c9db1",
                    "difficulty" : "0x020080",
                    "extraData" : "",
                    "gasLimit" : "0x2fefba",
                    "gasUsed" : "0x5208",
                    "hash" : "0x12f1dd2edb7ddbf1d514ef079688b93e6017695510d9583266fe3174f65d2756",
                    "mixHash" : "0xa7be3df4b673263f5a615073121891933dddf331d0c8cec0e9aab3a0d581be4a",
                    "nonce" : "0xe664d6dbaa96bee5",
                    "number" : "0x03",
                    "parentHash" : "0x9f050be3f40d571987c82a42f987322a2a44b17f186f21311fa6cd144d6b21d8",
                    "receiptTrie" : "0x056b23fbba480696b65fe5a59b8f2148a1299103c4f57df839233af2cf4ca2d2",
                    "stateRoot" : "0x05392fd2041e4fe7fd48a00c4b8cfa410392e35c075d8546abf5b3a891e06d3c",
                    "timestamp" : "0x5d8b7319",
                    "transactionsTrie" : "0x8978964c37007b0091eb3e3489639ea5a5adbf295b717ab9f0c01895f97f5147",
                    "uncleHash" : "0x1dcc4de8dec75d7aab85b567b6ccd41ad312451b948a7413f0a142fd40d49347"
                },
                "blocknumber" : "3",
                "rlp" : "0xf90261f901f9a09f050be3f40d571987c82a42f987322a2a44b17f186f21311fa6cd144d6b21d8a01dcc4de8dec75d7aab85b567b6ccd41ad312451b948a7413f0a142fd40d49347948888f1f195afa192cfee860698584c030f4c9db1a005392fd2041e4fe7fd48a00c4b8cfa410392e35c075d8546abf5b3a891e06d3ca08978964c37007b0091eb3e3489639ea5a5adbf295b717ab9f0c01895f97f5147a0056b23fbba480696b65fe5a59b8f2148a1299103c4f57df839233af2cf4ca2d2b90100000000000000000000000000000000000000000000000000000000000000000000000000000000000000000000000000000000000000000000000000000000000000000000000000000000000000000000000000000000000000000000000000000000000000000000000000000000000000000000000000000000000000000000000000000000000000000000000000000000000000000000000000000000000000000000000000000000000000000000000000000000000000000000000000000000000000000000000000000000000000000000000000000000000000000000000000000000000000000000000000000000000000000000000000000000008302008003832fefba825208845d8b731980a0a7be3df4b673263f5a615073121891933dddf331d0c8cec0e9aab3a0d581be4a88e664d6dbaa96bee5f862f86002018304cb2f94095e7baea6a6c7c4c2dfeb977efac326af552d8705801ca06b1c1f6f2ac96f1d898113dbc02465001044fb7330cf7554d569ffec31c14839a0737e986047bf3d15120f8ed04a414bb827237a6346b52a90745ae0ae6334e4a1c0",
                "transactions" : [
                    {
                        "data" : "0x",
                        "gasLimit" : "0x04cb2f",
                        "gasPrice" : "0x01",
                        "nonce" : "0x02",
                        "r" : "0x6b1c1f6f2ac96f1d898113dbc02465001044fb7330cf7554d569ffec31c14839",
                        "s" : "0x737e986047bf3d15120f8ed04a414bb827237a6346b52a90745ae0ae6334e4a1",
                        "to" : "0x095e7baea6a6c7c4c2dfeb977efac326af552d87",
                        "v" : "0x1c",
                        "value" : "0x05"
                    }
                ],
                "uncleHeaders" : [
                ]
            },
            {
                "blockHeader" : {
                    "bloom" : "0x00000000000000000000000000000000000000000000000000000000000000000000000000000000000000000000000000000000000000000000000000000000000000000000000000000000000000000000000000000000000000000000000000000000000000000000000000000000000000000000000000000000000000000000000000000000000000000000000000000000000000000000000000000000000000000000000000000000000000000000000000000000000000000000000000000000000000000000000000000000000000000000000000000000000000000000000000000000000000000000000000000000000000000000000000000000",
                    "coinbase" : "0x8888f1f195afa192cfee860698584c030f4c9db1",
                    "difficulty" : "0x0200c0",
                    "extraData" : "",
                    "gasLimit" : "0x2fefba",
                    "gasUsed" : "0x5208",
                    "hash" : "0x9226235cfe568c8abc4c400638c7ad45830aea9866c3b880ea2346832f6c4dee",
                    "mixHash" : "0x2f8d6d4449a17701a51530a250cf7c10fcfd8ea0bb0c2896b3c86c916bec47d3",
                    "nonce" : "0x1c19dc08a82bca1d",
                    "number" : "0x04",
                    "parentHash" : "0x12f1dd2edb7ddbf1d514ef079688b93e6017695510d9583266fe3174f65d2756",
                    "receiptTrie" : "0x056b23fbba480696b65fe5a59b8f2148a1299103c4f57df839233af2cf4ca2d2",
                    "stateRoot" : "0x1fc21f1c058761bfc56989920ab63b5e2f043767b1d1ce921f774275e30ff576",
                    "timestamp" : "0x5d8b731a",
                    "transactionsTrie" : "0x472ec692bb3085e4cb95a0f735a96a99c7dba39ed499aa8ebe6094b38e11d8d7",
                    "uncleHash" : "0x1dcc4de8dec75d7aab85b567b6ccd41ad312451b948a7413f0a142fd40d49347"
                },
                "blocknumber" : "4",
                "rlp" : "0xf90261f901f9a012f1dd2edb7ddbf1d514ef079688b93e6017695510d9583266fe3174f65d2756a01dcc4de8dec75d7aab85b567b6ccd41ad312451b948a7413f0a142fd40d49347948888f1f195afa192cfee860698584c030f4c9db1a01fc21f1c058761bfc56989920ab63b5e2f043767b1d1ce921f774275e30ff576a0472ec692bb3085e4cb95a0f735a96a99c7dba39ed499aa8ebe6094b38e11d8d7a0056b23fbba480696b65fe5a59b8f2148a1299103c4f57df839233af2cf4ca2d2b9010000000000000000000000000000000000000000000000000000000000000000000000000000000000000000000000000000000000000000000000000000000000000000000000000000000000000000000000000000000000000000000000000000000000000000000000000000000000000000000000000000000000000000000000000000000000000000000000000000000000000000000000000000000000000000000000000000000000000000000000000000000000000000000000000000000000000000000000000000000000000000000000000000000000000000000000000000000000000000000000000000000000000000000000000000000000830200c004832fefba825208845d8b731a80a02f8d6d4449a17701a51530a250cf7c10fcfd8ea0bb0c2896b3c86c916bec47d3881c19dc08a82bca1df862f86003018304cb2f94095e7baea6a6c7c4c2dfeb977efac326af552d8707801ba0637dd537e29027117edf445a1df18adc0278572bc64de022178c472bcb8d5f7da00dc10a14a485398302b79274c128505d7dca344fb343cbcf827d1689b0dfbe16c0",
                "transactions" : [
                    {
                        "data" : "0x",
                        "gasLimit" : "0x04cb2f",
                        "gasPrice" : "0x01",
                        "nonce" : "0x03",
                        "r" : "0x637dd537e29027117edf445a1df18adc0278572bc64de022178c472bcb8d5f7d",
                        "s" : "0x0dc10a14a485398302b79274c128505d7dca344fb343cbcf827d1689b0dfbe16",
                        "to" : "0x095e7baea6a6c7c4c2dfeb977efac326af552d87",
                        "v" : "0x1b",
                        "value" : "0x07"
                    }
                ],
                "uncleHeaders" : [
                ]
            },
            {
                "blockHeader" : {
                    "bloom" : "0x00000000000000000000000000000000000000000000000000000000000000000000000000000000000000000000000000000000000000000000000000000000000000000000000000000000000000000000000000000000000000000000000000000000000000000000000000000000000000000000000000000000000000000000000000000000000000000000000000000000000000000000000000000000000000000000000000000000000000000000000000000000000000000000000000000000000000000000000000000000000000000000000000000000000000000000000000000000000000000000000000000000000000000000000000000000",
                    "coinbase" : "0x8888f1f195afa192cfee860698584c030f4c9db1",
                    "difficulty" : "0x020080",
                    "extraData" : "",
                    "gasLimit" : "0x2fefba",
                    "gasUsed" : "0x5208",
                    "hash" : "0x34e86b1640a92b85fb9e36239f618c1dfc99b3ba1c905ade417052159aa00a92",
                    "mixHash" : "0xf32716adbad0743040e799655c93f80d551643a565f2c439c68cafea2c44da68",
                    "nonce" : "0x944c7c855c5a4b66",
                    "number" : "0x03",
                    "parentHash" : "0x9f050be3f40d571987c82a42f987322a2a44b17f186f21311fa6cd144d6b21d8",
                    "receiptTrie" : "0x056b23fbba480696b65fe5a59b8f2148a1299103c4f57df839233af2cf4ca2d2",
                    "stateRoot" : "0xda24c10aaf838ea2ed566fe603b6a41a8f734df5f7a9b0dc95963df29e3630bc",
                    "timestamp" : "0x5d8b731c",
                    "transactionsTrie" : "0xa6bdd911d7876852cafbc02d1dd6bf45abb3ce084b5dd46e6efd0dc415814e74",
                    "uncleHash" : "0x90030febd7db42af10f1b58e6caaf6ff4d2b819072786f994cfebfa5dd1c5eb0"
                },
                "blocknumber" : "3",
                "rlp" : "0xf9045df901f9a09f050be3f40d571987c82a42f987322a2a44b17f186f21311fa6cd144d6b21d8a090030febd7db42af10f1b58e6caaf6ff4d2b819072786f994cfebfa5dd1c5eb0948888f1f195afa192cfee860698584c030f4c9db1a0da24c10aaf838ea2ed566fe603b6a41a8f734df5f7a9b0dc95963df29e3630bca0a6bdd911d7876852cafbc02d1dd6bf45abb3ce084b5dd46e6efd0dc415814e74a0056b23fbba480696b65fe5a59b8f2148a1299103c4f57df839233af2cf4ca2d2b90100000000000000000000000000000000000000000000000000000000000000000000000000000000000000000000000000000000000000000000000000000000000000000000000000000000000000000000000000000000000000000000000000000000000000000000000000000000000000000000000000000000000000000000000000000000000000000000000000000000000000000000000000000000000000000000000000000000000000000000000000000000000000000000000000000000000000000000000000000000000000000000000000000000000000000000000000000000000000000000000000000000000000000000000000000000008302008003832fefba825208845d8b731c80a0f32716adbad0743040e799655c93f80d551643a565f2c439c68cafea2c44da6888944c7c855c5a4b66f862f86002018304cb2f94095e7baea6a6c7c4c2dfeb977efac326af552d870b801ba0fde0167802eedb87f14f12e0cf0cac4315a027121905b8ca75a3360dcbac6d39a02d51ecf5ed68b453c3f264a396dfe15e790c8e8121acbd701e81aac9f08435f6f901faf901f7a0b1ff065f6328dfc527a7539f23296cf598d31afb0352b17533a892f76588a165a01dcc4de8dec75d7aab85b567b6ccd41ad312451b948a7413f0a142fd40d493479412e7b6f1e453ce745121e57a1dc2970c578b5141a0a906bc55ef9e617131a43378f56f3b07edb8fbab7bcc3da5b0b0da1667361b96a056e81f171bcc55a6ff8345e692c0f86e5b48e01b996cadc001622fb5e363b421a056e81f171bcc55a6ff8345e692c0f86e5b48e01b996cadc001622fb5e363b421b90100000000000000000000000000000000000000000000000000000000000000000000000000000000000000000000000000000000000000000000000000000000000000000000000000000000000000000000000000000000000000000000000000000000000000000000000000000000000000000000000000000000000000000000000000000000000000000000000000000000000000000000000000000000000000000000000000000000000000000000000000000000000000000000000000000000000000000000000000000000000000000000000000000000000000000000000000000000000000000000000000000000000000000000000000000000008302004002832fefba80845d8b731880a04bba0746513a36584630b641638e6cfe2faeafb2a2f10e32bb3c3c88d4ac9af688c1d8ff5d482aec7c",
                "transactions" : [
                    {
                        "data" : "0x",
                        "gasLimit" : "0x04cb2f",
                        "gasPrice" : "0x01",
                        "nonce" : "0x02",
                        "r" : "0xfde0167802eedb87f14f12e0cf0cac4315a027121905b8ca75a3360dcbac6d39",
                        "s" : "0x2d51ecf5ed68b453c3f264a396dfe15e790c8e8121acbd701e81aac9f08435f6",
                        "to" : "0x095e7baea6a6c7c4c2dfeb977efac326af552d87",
                        "v" : "0x1b",
                        "value" : "0x0b"
                    }
                ],
                "uncleHeaders" : [
                    {
                        "bloom" : "0x00000000000000000000000000000000000000000000000000000000000000000000000000000000000000000000000000000000000000000000000000000000000000000000000000000000000000000000000000000000000000000000000000000000000000000000000000000000000000000000000000000000000000000000000000000000000000000000000000000000000000000000000000000000000000000000000000000000000000000000000000000000000000000000000000000000000000000000000000000000000000000000000000000000000000000000000000000000000000000000000000000000000000000000000000000000",
                        "coinbase" : "0x12e7b6f1e453ce745121e57a1dc2970c578b5141",
                        "difficulty" : "0x020040",
                        "extraData" : "",
                        "gasLimit" : "0x2fefba",
                        "gasUsed" : "0x00",
                        "hash" : "0x366a992491d1fc3e600489649c9a8c04a2b303cf1488ba07bc288b2fe8724d4f",
                        "mixHash" : "0x4bba0746513a36584630b641638e6cfe2faeafb2a2f10e32bb3c3c88d4ac9af6",
                        "nonce" : "0xc1d8ff5d482aec7c",
                        "number" : "0x02",
                        "parentHash" : "0xb1ff065f6328dfc527a7539f23296cf598d31afb0352b17533a892f76588a165",
                        "receiptTrie" : "0x56e81f171bcc55a6ff8345e692c0f86e5b48e01b996cadc001622fb5e363b421",
                        "stateRoot" : "0xa906bc55ef9e617131a43378f56f3b07edb8fbab7bcc3da5b0b0da1667361b96",
                        "timestamp" : "0x5d8b7318",
                        "transactionsTrie" : "0x56e81f171bcc55a6ff8345e692c0f86e5b48e01b996cadc001622fb5e363b421",
                        "uncleHash" : "0x1dcc4de8dec75d7aab85b567b6ccd41ad312451b948a7413f0a142fd40d49347"
                    }
                ]
            }
        ],
        "genesisBlockHeader" : {
            "bloom" : "0x00000000000000000000000000000000000000000000000000000000000000000000000000000000000000000000000000000000000000000000000000000000000000000000000000000000000000000000000000000000000000000000000000000000000000000000000000000000000000000000000000000000000000000000000000000000000000000000000000000000000000000000000000000000000000000000000000000000000000000000000000000000000000000000000000000000000000000000000000000000000000000000000000000000000000000000000000000000000000000000000000000000000000000000000000000000",
            "coinbase" : "0x8888f1f195afa192cfee860698584c030f4c9db1",
            "difficulty" : "0x020000",
            "extraData" : "0x42",
            "gasLimit" : "0x2fefd8",
            "gasUsed" : "0x00",
            "hash" : "0x5a39ed1020c04d4d84539975b893a4e7c53eab6c2965db8bc3468093a31bc5ae",
            "mixHash" : "0x56e81f171bcc55a6ff8345e692c0f86e5b48e01b996cadc001622fb5e363b421",
            "nonce" : "0x0102030405060708",
            "number" : "0x00",
            "parentHash" : "0x0000000000000000000000000000000000000000000000000000000000000000",
            "receiptTrie" : "0x56e81f171bcc55a6ff8345e692c0f86e5b48e01b996cadc001622fb5e363b421",
            "stateRoot" : "0x7dba07d6b448a186e9612e5f737d1c909dce473e53199901a302c00646d523c1",
            "timestamp" : "0x54c98c81",
            "transactionsTrie" : "0x56e81f171bcc55a6ff8345e692c0f86e5b48e01b996cadc001622fb5e363b421",
            "uncleHash" : "0x1dcc4de8dec75d7aab85b567b6ccd41ad312451b948a7413f0a142fd40d49347"
        },
        "genesisRLP" : "0xf901fcf901f7a00000000000000000000000000000000000000000000000000000000000000000a01dcc4de8dec75d7aab85b567b6ccd41ad312451b948a7413f0a142fd40d49347948888f1f195afa192cfee860698584c030f4c9db1a07dba07d6b448a186e9612e5f737d1c909dce473e53199901a302c00646d523c1a056e81f171bcc55a6ff8345e692c0f86e5b48e01b996cadc001622fb5e363b421a056e81f171bcc55a6ff8345e692c0f86e5b48e01b996cadc001622fb5e363b421b90100000000000000000000000000000000000000000000000000000000000000000000000000000000000000000000000000000000000000000000000000000000000000000000000000000000000000000000000000000000000000000000000000000000000000000000000000000000000000000000000000000000000000000000000000000000000000000000000000000000000000000000000000000000000000000000000000000000000000000000000000000000000000000000000000000000000000000000000000000000000000000000000000000000000000000000000000000000000000000000000000000000000000000000000000000000008302000080832fefd8808454c98c8142a056e81f171bcc55a6ff8345e692c0f86e5b48e01b996cadc001622fb5e363b421880102030405060708c0c0",
        "lastblockhash" : "0x9226235cfe568c8abc4c400638c7ad45830aea9866c3b880ea2346832f6c4dee",
        "network" : "Singularity",
        "postState" : {
            "0x095e7baea6a6c7c4c2dfeb977efac326af552d87" : {
                "balance" : "0x10",
                "code" : "",
                "nonce" : "0x00",
                "storage" : {
                }
            },
            "0x8888f1f195afa192cfee860698584c030f4c9db1" : {
                "balance" : "0x6f05b59d3b214820",
                "code" : "",
                "nonce" : "0x00",
                "storage" : {
                }
            },
            "0xa94f5374fce5edbc8e2a8697c15331677e6ebf0b" : {
                "balance" : "0x09184e7157d0",
                "code" : "",
                "nonce" : "0x04",
                "storage" : {
                }
            }
        },
        "pre" : {
            "0xa94f5374fce5edbc8e2a8697c15331677e6ebf0b" : {
                "balance" : "0x09184e72a000",
                "code" : "",
                "nonce" : "0x00",
                "storage" : {
                }
            }
        },
        "sealEngine" : "Ethash"
    }
}