{
    "uncleBlockAtBlock3AfterBlock3_Singularity" : {
        "_info" : {
            "comment" : "",
            "filledwith" : "testeth 1.7.0-alpha.2-8+commit.86bb4068.dirty",
            "lllcversion" : "Version: 0.5.12-develop.2019.9.13+commit.2d601a4f.Linux.g++",
            "source" : "src/BlockchainTestsFiller/ValidBlocks/bcTotalDifficultyTest/uncleBlockAtBlock3AfterBlock3Filler.json",
            "sourceHash" : "a487e28699a716fda193ded01945e634c0db951d1a9a7a3952c86f45ad84fed3"
        },
        "blocks" : [
            {
                "blockHeader" : {
                    "bloom" : "0x00000000000000000000000000000000000000000000000000000000000000000000000000000000000000000000000000000000000000000000000000000000000000000000000000000000000000000000000000000000000000000000000000000000000000000000000000000000000000000000000000000000000000000000000000000000000000000000000000000000000000000000000000000000000000000000000000000000000000000000000000000000000000000000000000000000000000000000000000000000000000000000000000000000000000000000000000000000000000000000000000000000000000000000000000000000",
                    "coinbase" : "0x8888f1f195afa192cfee860698584c030f4c9db1",
                    "difficulty" : "0x020000",
                    "extraData" : "",
                    "gasLimit" : "0x2fefba",
                    "gasUsed" : "0x5208",
                    "hash" : "0x303175e9ef7c46cf53b4e96908165996fe14c2d56c39328be9a35984f578d956",
                    "mixHash" : "0xa5ca434e1b6cb5346182ec47f4880a6578b9024a8bd4a635eb2b23f868fdd1eb",
                    "nonce" : "0xadb8729a7d876440",
                    "number" : "0x01",
                    "parentHash" : "0x5a39ed1020c04d4d84539975b893a4e7c53eab6c2965db8bc3468093a31bc5ae",
                    "receiptTrie" : "0x056b23fbba480696b65fe5a59b8f2148a1299103c4f57df839233af2cf4ca2d2",
                    "stateRoot" : "0xa906bc55ef9e617131a43378f56f3b07edb8fbab7bcc3da5b0b0da1667361b96",
                    "timestamp" : "0x5d8b7538",
                    "transactionsTrie" : "0x1539b31ea0fa548996a2f64f4d86cadb9c97f2c9ca7923218fe0d38ea5ba1c75",
                    "uncleHash" : "0x1dcc4de8dec75d7aab85b567b6ccd41ad312451b948a7413f0a142fd40d49347"
                },
                "blocknumber" : "1",
                "rlp" : "0xf90261f901f9a05a39ed1020c04d4d84539975b893a4e7c53eab6c2965db8bc3468093a31bc5aea01dcc4de8dec75d7aab85b567b6ccd41ad312451b948a7413f0a142fd40d49347948888f1f195afa192cfee860698584c030f4c9db1a0a906bc55ef9e617131a43378f56f3b07edb8fbab7bcc3da5b0b0da1667361b96a01539b31ea0fa548996a2f64f4d86cadb9c97f2c9ca7923218fe0d38ea5ba1c75a0056b23fbba480696b65fe5a59b8f2148a1299103c4f57df839233af2cf4ca2d2b90100000000000000000000000000000000000000000000000000000000000000000000000000000000000000000000000000000000000000000000000000000000000000000000000000000000000000000000000000000000000000000000000000000000000000000000000000000000000000000000000000000000000000000000000000000000000000000000000000000000000000000000000000000000000000000000000000000000000000000000000000000000000000000000000000000000000000000000000000000000000000000000000000000000000000000000000000000000000000000000000000000000000000000000000000000000008302000001832fefba825208845d8b753880a0a5ca434e1b6cb5346182ec47f4880a6578b9024a8bd4a635eb2b23f868fdd1eb88adb8729a7d876440f862f86080018304cb2f94095e7baea6a6c7c4c2dfeb977efac326af552d8701801ca0f95ddcbc36fb927c225810016715b2ebb5478efcdeb241ee8816e590c1e42559a051012cc60ee68f0d042f6e148550acafb3f306a381e69d003909c30acb15ff56c0",
                "transactions" : [
                    {
                        "data" : "0x",
                        "gasLimit" : "0x04cb2f",
                        "gasPrice" : "0x01",
                        "nonce" : "0x00",
                        "r" : "0xf95ddcbc36fb927c225810016715b2ebb5478efcdeb241ee8816e590c1e42559",
                        "s" : "0x51012cc60ee68f0d042f6e148550acafb3f306a381e69d003909c30acb15ff56",
                        "to" : "0x095e7baea6a6c7c4c2dfeb977efac326af552d87",
                        "v" : "0x1c",
                        "value" : "0x01"
                    }
                ],
                "uncleHeaders" : [
                ]
            },
            {
                "blockHeader" : {
                    "bloom" : "0x00000000000000000000000000000000000000000000000000000000000000000000000000000000000000000000000000000000000000000000000000000000000000000000000000000000000000000000000000000000000000000000000000000000000000000000000000000000000000000000000000000000000000000000000000000000000000000000000000000000000000000000000000000000000000000000000000000000000000000000000000000000000000000000000000000000000000000000000000000000000000000000000000000000000000000000000000000000000000000000000000000000000000000000000000000000",
                    "coinbase" : "0x8888f1f195afa192cfee860698584c030f4c9db1",
                    "difficulty" : "0x020040",
                    "extraData" : "",
                    "gasLimit" : "0x2fefba",
                    "gasUsed" : "0x5208",
                    "hash" : "0xae095e23fb1f65f7f40c78c63f2c815911f443f19ceadb17276ba99a869be618",
                    "mixHash" : "0x1550afc952c251565075dbe48eb751e36321e71bf241c8989c2bfb562f8792cd",
                    "nonce" : "0x8c0d36e3d1db3e79",
                    "number" : "0x02",
                    "parentHash" : "0x303175e9ef7c46cf53b4e96908165996fe14c2d56c39328be9a35984f578d956",
                    "receiptTrie" : "0x056b23fbba480696b65fe5a59b8f2148a1299103c4f57df839233af2cf4ca2d2",
                    "stateRoot" : "0xdb8de281cab30cc75708a134c896ee7f5b89d933baf1d8bbfd7d0eceb6813bc1",
                    "timestamp" : "0x5d8b7539",
                    "transactionsTrie" : "0x1dc43d9a5f5fefc8664903164d46adf3a98248d858a885558916dd8d73f5166c",
                    "uncleHash" : "0x1dcc4de8dec75d7aab85b567b6ccd41ad312451b948a7413f0a142fd40d49347"
                },
                "blocknumber" : "2",
                "rlp" : "0xf90261f901f9a0303175e9ef7c46cf53b4e96908165996fe14c2d56c39328be9a35984f578d956a01dcc4de8dec75d7aab85b567b6ccd41ad312451b948a7413f0a142fd40d49347948888f1f195afa192cfee860698584c030f4c9db1a0db8de281cab30cc75708a134c896ee7f5b89d933baf1d8bbfd7d0eceb6813bc1a01dc43d9a5f5fefc8664903164d46adf3a98248d858a885558916dd8d73f5166ca0056b23fbba480696b65fe5a59b8f2148a1299103c4f57df839233af2cf4ca2d2b90100000000000000000000000000000000000000000000000000000000000000000000000000000000000000000000000000000000000000000000000000000000000000000000000000000000000000000000000000000000000000000000000000000000000000000000000000000000000000000000000000000000000000000000000000000000000000000000000000000000000000000000000000000000000000000000000000000000000000000000000000000000000000000000000000000000000000000000000000000000000000000000000000000000000000000000000000000000000000000000000000000000000000000000000000000000008302004002832fefba825208845d8b753980a01550afc952c251565075dbe48eb751e36321e71bf241c8989c2bfb562f8792cd888c0d36e3d1db3e79f862f86001018304cb2f94095e7baea6a6c7c4c2dfeb977efac326af552d8703801ba028fc37782401456825e0faa1a1f8e1e034d8047f29cf44d21d29f55ce0b8159ea00cac7f7c3e6e141c14e9465a9f1e11705f17f93d637996c9a19f82f69f2aafb8c0",
                "transactions" : [
                    {
                        "data" : "0x",
                        "gasLimit" : "0x04cb2f",
                        "gasPrice" : "0x01",
                        "nonce" : "0x01",
                        "r" : "0x28fc37782401456825e0faa1a1f8e1e034d8047f29cf44d21d29f55ce0b8159e",
                        "s" : "0x0cac7f7c3e6e141c14e9465a9f1e11705f17f93d637996c9a19f82f69f2aafb8",
                        "to" : "0x095e7baea6a6c7c4c2dfeb977efac326af552d87",
                        "v" : "0x1b",
                        "value" : "0x03"
                    }
                ],
                "uncleHeaders" : [
                ]
            },
            {
                "blockHeader" : {
                    "bloom" : "0x00000000000000000000000000000000000000000000000000000000000000000000000000000000000000000000000000000000000000000000000000000000000000000000000000000000000000000000000000000000000000000000000000000000000000000000000000000000000000000000000000000000000000000000000000000000000000000000000000000000000000000000000000000000000000000000000000000000000000000000000000000000000000000000000000000000000000000000000000000000000000000000000000000000000000000000000000000000000000000000000000000000000000000000000000000000",
                    "coinbase" : "0x8888f1f195afa192cfee860698584c030f4c9db1",
                    "difficulty" : "0x020080",
                    "extraData" : "",
                    "gasLimit" : "0x2fefba",
                    "gasUsed" : "0x5208",
                    "hash" : "0x2b246db7f90414adff1b9a8240e2b1d3f36c3362b8f47caf5db348f0f5595e90",
                    "mixHash" : "0x83592a929b89157ae60657669a8017a49dd87ed0490571bb64fc01ef16c386d7",
                    "nonce" : "0x594c5bf0e372415f",
                    "number" : "0x03",
                    "parentHash" : "0xae095e23fb1f65f7f40c78c63f2c815911f443f19ceadb17276ba99a869be618",
                    "receiptTrie" : "0x056b23fbba480696b65fe5a59b8f2148a1299103c4f57df839233af2cf4ca2d2",
                    "stateRoot" : "0x05392fd2041e4fe7fd48a00c4b8cfa410392e35c075d8546abf5b3a891e06d3c",
                    "timestamp" : "0x5d8b753a",
                    "transactionsTrie" : "0x8978964c37007b0091eb3e3489639ea5a5adbf295b717ab9f0c01895f97f5147",
                    "uncleHash" : "0x1dcc4de8dec75d7aab85b567b6ccd41ad312451b948a7413f0a142fd40d49347"
                },
                "blocknumber" : "3",
                "rlp" : "0xf90261f901f9a0ae095e23fb1f65f7f40c78c63f2c815911f443f19ceadb17276ba99a869be618a01dcc4de8dec75d7aab85b567b6ccd41ad312451b948a7413f0a142fd40d49347948888f1f195afa192cfee860698584c030f4c9db1a005392fd2041e4fe7fd48a00c4b8cfa410392e35c075d8546abf5b3a891e06d3ca08978964c37007b0091eb3e3489639ea5a5adbf295b717ab9f0c01895f97f5147a0056b23fbba480696b65fe5a59b8f2148a1299103c4f57df839233af2cf4ca2d2b90100000000000000000000000000000000000000000000000000000000000000000000000000000000000000000000000000000000000000000000000000000000000000000000000000000000000000000000000000000000000000000000000000000000000000000000000000000000000000000000000000000000000000000000000000000000000000000000000000000000000000000000000000000000000000000000000000000000000000000000000000000000000000000000000000000000000000000000000000000000000000000000000000000000000000000000000000000000000000000000000000000000000000000000000000000000008302008003832fefba825208845d8b753a80a083592a929b89157ae60657669a8017a49dd87ed0490571bb64fc01ef16c386d788594c5bf0e372415ff862f86002018304cb2f94095e7baea6a6c7c4c2dfeb977efac326af552d8705801ca06b1c1f6f2ac96f1d898113dbc02465001044fb7330cf7554d569ffec31c14839a0737e986047bf3d15120f8ed04a414bb827237a6346b52a90745ae0ae6334e4a1c0",
                "transactions" : [
                    {
                        "data" : "0x",
                        "gasLimit" : "0x04cb2f",
                        "gasPrice" : "0x01",
                        "nonce" : "0x02",
                        "r" : "0x6b1c1f6f2ac96f1d898113dbc02465001044fb7330cf7554d569ffec31c14839",
                        "s" : "0x737e986047bf3d15120f8ed04a414bb827237a6346b52a90745ae0ae6334e4a1",
                        "to" : "0x095e7baea6a6c7c4c2dfeb977efac326af552d87",
                        "v" : "0x1c",
                        "value" : "0x05"
                    }
                ],
                "uncleHeaders" : [
                ]
            },
            {
                "blockHeader" : {
                    "bloom" : "0x00000000000000000000000000000000000000000000000000000000000000000000000000000000000000000000000000000000000000000000000000000000000000000000000000000000000000000000000000000000000000000000000000000000000000000000000000000000000000000000000000000000000000000000000000000000000000000000000000000000000000000000000000000000000000000000000000000000000000000000000000000000000000000000000000000000000000000000000000000000000000000000000000000000000000000000000000000000000000000000000000000000000000000000000000000000",
                    "coinbase" : "0x8888f1f195afa192cfee860698584c030f4c9db1",
                    "difficulty" : "0x020080",
                    "extraData" : "",
                    "gasLimit" : "0x2fefba",
                    "gasUsed" : "0x5208",
                    "hash" : "0x27ed5e69273d5ddea5afd2395e9870e3e98c8c8cb58f70fe4d23876e76378cd4",
                    "mixHash" : "0xe5957e87c3862713e67f5048d77a9e5cee0938b61fe61541af30026c661ebf44",
                    "nonce" : "0xc044b1c260dcaed0",
                    "number" : "0x03",
                    "parentHash" : "0xae095e23fb1f65f7f40c78c63f2c815911f443f19ceadb17276ba99a869be618",
                    "receiptTrie" : "0x056b23fbba480696b65fe5a59b8f2148a1299103c4f57df839233af2cf4ca2d2",
                    "stateRoot" : "0x301d7c7aa23733873204e550f3bc623f31e27df4cce20302e33e6e0be6711522",
                    "timestamp" : "0x5d8b753c",
                    "transactionsTrie" : "0x582d246aa9271772d565ffde8a2f76929622ccc2e73c1fa9f6fc5d1ce7209fb7",
                    "uncleHash" : "0xe790b1a6c6f9e95d4df9fc611b482cc7a7a2afbde514a21c595bb7621ca51b06"
                },
                "blocknumber" : "3",
                "rlp" : "0xf9045df901f9a0ae095e23fb1f65f7f40c78c63f2c815911f443f19ceadb17276ba99a869be618a0e790b1a6c6f9e95d4df9fc611b482cc7a7a2afbde514a21c595bb7621ca51b06948888f1f195afa192cfee860698584c030f4c9db1a0301d7c7aa23733873204e550f3bc623f31e27df4cce20302e33e6e0be6711522a0582d246aa9271772d565ffde8a2f76929622ccc2e73c1fa9f6fc5d1ce7209fb7a0056b23fbba480696b65fe5a59b8f2148a1299103c4f57df839233af2cf4ca2d2b90100000000000000000000000000000000000000000000000000000000000000000000000000000000000000000000000000000000000000000000000000000000000000000000000000000000000000000000000000000000000000000000000000000000000000000000000000000000000000000000000000000000000000000000000000000000000000000000000000000000000000000000000000000000000000000000000000000000000000000000000000000000000000000000000000000000000000000000000000000000000000000000000000000000000000000000000000000000000000000000000000000000000000000000000000000000008302008003832fefba825208845d8b753c80a0e5957e87c3862713e67f5048d77a9e5cee0938b61fe61541af30026c661ebf4488c044b1c260dcaed0f862f86002018304cb2f94095e7baea6a6c7c4c2dfeb977efac326af552d8707801ba0b2f92882853ce993eb018d89be06502b909e5374412b252703f291b1e0ddac33a073cf199dd59fb906fc88f9dfaa0efe1ad58c6bbcf6c98472eddd24b08544134df901faf901f7a0303175e9ef7c46cf53b4e96908165996fe14c2d56c39328be9a35984f578d956a01dcc4de8dec75d7aab85b567b6ccd41ad312451b948a7413f0a142fd40d4934794576cc8c331abcf01d93bf3decd6f4814507feaeba0a906bc55ef9e617131a43378f56f3b07edb8fbab7bcc3da5b0b0da1667361b96a056e81f171bcc55a6ff8345e692c0f86e5b48e01b996cadc001622fb5e363b421a056e81f171bcc55a6ff8345e692c0f86e5b48e01b996cadc001622fb5e363b421b90100000000000000000000000000000000000000000000000000000000000000000000000000000000000000000000000000000000000000000000000000000000000000000000000000000000000000000000000000000000000000000000000000000000000000000000000000000000000000000000000000000000000000000000000000000000000000000000000000000000000000000000000000000000000000000000000000000000000000000000000000000000000000000000000000000000000000000000000000000000000000000000000000000000000000000000000000000000000000000000000000000000000000000000000000000000008302004002832fefba80845d8b753980a008b27d42bde135aa7bd4a9a07392374962c2debbc17056fad8117d8940fea3858874af47da5d92a479",
                "transactions" : [
                    {
                        "data" : "0x",
                        "gasLimit" : "0x04cb2f",
                        "gasPrice" : "0x01",
                        "nonce" : "0x02",
                        "r" : "0xb2f92882853ce993eb018d89be06502b909e5374412b252703f291b1e0ddac33",
                        "s" : "0x73cf199dd59fb906fc88f9dfaa0efe1ad58c6bbcf6c98472eddd24b08544134d",
                        "to" : "0x095e7baea6a6c7c4c2dfeb977efac326af552d87",
                        "v" : "0x1b",
                        "value" : "0x07"
                    }
                ],
                "uncleHeaders" : [
                    {
                        "bloom" : "0x00000000000000000000000000000000000000000000000000000000000000000000000000000000000000000000000000000000000000000000000000000000000000000000000000000000000000000000000000000000000000000000000000000000000000000000000000000000000000000000000000000000000000000000000000000000000000000000000000000000000000000000000000000000000000000000000000000000000000000000000000000000000000000000000000000000000000000000000000000000000000000000000000000000000000000000000000000000000000000000000000000000000000000000000000000000",
                        "coinbase" : "0x576cc8c331abcf01d93bf3decd6f4814507feaeb",
                        "difficulty" : "0x020040",
                        "extraData" : "",
                        "gasLimit" : "0x2fefba",
                        "gasUsed" : "0x00",
                        "hash" : "0xa0c98c75baf66c63b96dbc14a17cd38a279e7f86a9e484e55235ef297123ee47",
                        "mixHash" : "0x08b27d42bde135aa7bd4a9a07392374962c2debbc17056fad8117d8940fea385",
                        "nonce" : "0x74af47da5d92a479",
                        "number" : "0x02",
                        "parentHash" : "0x303175e9ef7c46cf53b4e96908165996fe14c2d56c39328be9a35984f578d956",
                        "receiptTrie" : "0x56e81f171bcc55a6ff8345e692c0f86e5b48e01b996cadc001622fb5e363b421",
                        "stateRoot" : "0xa906bc55ef9e617131a43378f56f3b07edb8fbab7bcc3da5b0b0da1667361b96",
                        "timestamp" : "0x5d8b7539",
                        "transactionsTrie" : "0x56e81f171bcc55a6ff8345e692c0f86e5b48e01b996cadc001622fb5e363b421",
                        "uncleHash" : "0x1dcc4de8dec75d7aab85b567b6ccd41ad312451b948a7413f0a142fd40d49347"
                    }
                ]
            },
            {
                "blockHeader" : {
                    "bloom" : "0x00000000000000000000000000000000000000000000000000000000000000000000000000000000000000000000000000000000000000000000000000000000000000000000000000000000000000000000000000000000000000000000000000000000000000000000000000000000000000000000000000000000000000000000000000000000000000000000000000000000000000000000000000000000000000000000000000000000000000000000000000000000000000000000000000000000000000000000000000000000000000000000000000000000000000000000000000000000000000000000000000000000000000000000000000000000",
                    "coinbase" : "0x8888f1f195afa192cfee860698584c030f4c9db1",
                    "difficulty" : "0x020100",
                    "extraData" : "",
                    "gasLimit" : "0x2fefba",
                    "gasUsed" : "0x5208",
                    "hash" : "0xc68ae51f9138c3586dc6ba0aa634fe3d43d01b9d8f50ddc60c1881407aea3855",
                    "mixHash" : "0x8929be1c9c071e15d0321def2a0eeddd5286f8b3e90a5993f7f9b9e5e7ea8df5",
                    "nonce" : "0x218f4ab1eb266caf",
                    "number" : "0x04",
                    "parentHash" : "0x27ed5e69273d5ddea5afd2395e9870e3e98c8c8cb58f70fe4d23876e76378cd4",
                    "receiptTrie" : "0x056b23fbba480696b65fe5a59b8f2148a1299103c4f57df839233af2cf4ca2d2",
                    "stateRoot" : "0x8e63e89e992a5ef2e03fc1a7fb7320e5bfd00205fc0b559bec58609e17814068",
                    "timestamp" : "0x5d8b753d",
                    "transactionsTrie" : "0xbd4756c0508618c7df829e5c341f701cfd63fbfeea380fd06b30bf4496a3ce89",
                    "uncleHash" : "0x1dcc4de8dec75d7aab85b567b6ccd41ad312451b948a7413f0a142fd40d49347"
                },
                "blocknumber" : "4",
                "rlp" : "0xf90261f901f9a027ed5e69273d5ddea5afd2395e9870e3e98c8c8cb58f70fe4d23876e76378cd4a01dcc4de8dec75d7aab85b567b6ccd41ad312451b948a7413f0a142fd40d49347948888f1f195afa192cfee860698584c030f4c9db1a08e63e89e992a5ef2e03fc1a7fb7320e5bfd00205fc0b559bec58609e17814068a0bd4756c0508618c7df829e5c341f701cfd63fbfeea380fd06b30bf4496a3ce89a0056b23fbba480696b65fe5a59b8f2148a1299103c4f57df839233af2cf4ca2d2b90100000000000000000000000000000000000000000000000000000000000000000000000000000000000000000000000000000000000000000000000000000000000000000000000000000000000000000000000000000000000000000000000000000000000000000000000000000000000000000000000000000000000000000000000000000000000000000000000000000000000000000000000000000000000000000000000000000000000000000000000000000000000000000000000000000000000000000000000000000000000000000000000000000000000000000000000000000000000000000000000000000000000000000000000000000000008302010004832fefba825208845d8b753d80a08929be1c9c071e15d0321def2a0eeddd5286f8b3e90a5993f7f9b9e5e7ea8df588218f4ab1eb266caff862f86003018304cb2f94095e7baea6a6c7c4c2dfeb977efac326af552d870b801ba0d224c5a0e2d5380702198df0c809d0c38c371189b60a87e490329ea66f9ab327a00509ff147a5b1c375298d17895d0a8d8008d636fe94ec8dd78586f67c71f5606c0",
                "transactions" : [
                    {
                        "data" : "0x",
                        "gasLimit" : "0x04cb2f",
                        "gasPrice" : "0x01",
                        "nonce" : "0x03",
                        "r" : "0xd224c5a0e2d5380702198df0c809d0c38c371189b60a87e490329ea66f9ab327",
                        "s" : "0x0509ff147a5b1c375298d17895d0a8d8008d636fe94ec8dd78586f67c71f5606",
                        "to" : "0x095e7baea6a6c7c4c2dfeb977efac326af552d87",
                        "v" : "0x1b",
                        "value" : "0x0b"
                    }
                ],
                "uncleHeaders" : [
                ]
            }
        ],
        "genesisBlockHeader" : {
            "bloom" : "0x00000000000000000000000000000000000000000000000000000000000000000000000000000000000000000000000000000000000000000000000000000000000000000000000000000000000000000000000000000000000000000000000000000000000000000000000000000000000000000000000000000000000000000000000000000000000000000000000000000000000000000000000000000000000000000000000000000000000000000000000000000000000000000000000000000000000000000000000000000000000000000000000000000000000000000000000000000000000000000000000000000000000000000000000000000000",
            "coinbase" : "0x8888f1f195afa192cfee860698584c030f4c9db1",
            "difficulty" : "0x020000",
            "extraData" : "0x42",
            "gasLimit" : "0x2fefd8",
            "gasUsed" : "0x00",
            "hash" : "0x5a39ed1020c04d4d84539975b893a4e7c53eab6c2965db8bc3468093a31bc5ae",
            "mixHash" : "0x56e81f171bcc55a6ff8345e692c0f86e5b48e01b996cadc001622fb5e363b421",
            "nonce" : "0x0102030405060708",
            "number" : "0x00",
            "parentHash" : "0x0000000000000000000000000000000000000000000000000000000000000000",
            "receiptTrie" : "0x56e81f171bcc55a6ff8345e692c0f86e5b48e01b996cadc001622fb5e363b421",
            "stateRoot" : "0x7dba07d6b448a186e9612e5f737d1c909dce473e53199901a302c00646d523c1",
            "timestamp" : "0x54c98c81",
            "transactionsTrie" : "0x56e81f171bcc55a6ff8345e692c0f86e5b48e01b996cadc001622fb5e363b421",
            "uncleHash" : "0x1dcc4de8dec75d7aab85b567b6ccd41ad312451b948a7413f0a142fd40d49347"
        },
        "genesisRLP" : "0xf901fcf901f7a00000000000000000000000000000000000000000000000000000000000000000a01dcc4de8dec75d7aab85b567b6ccd41ad312451b948a7413f0a142fd40d49347948888f1f195afa192cfee860698584c030f4c9db1a07dba07d6b448a186e9612e5f737d1c909dce473e53199901a302c00646d523c1a056e81f171bcc55a6ff8345e692c0f86e5b48e01b996cadc001622fb5e363b421a056e81f171bcc55a6ff8345e692c0f86e5b48e01b996cadc001622fb5e363b421b90100000000000000000000000000000000000000000000000000000000000000000000000000000000000000000000000000000000000000000000000000000000000000000000000000000000000000000000000000000000000000000000000000000000000000000000000000000000000000000000000000000000000000000000000000000000000000000000000000000000000000000000000000000000000000000000000000000000000000000000000000000000000000000000000000000000000000000000000000000000000000000000000000000000000000000000000000000000000000000000000000000000000000000000000000000000008302000080832fefd8808454c98c8142a056e81f171bcc55a6ff8345e692c0f86e5b48e01b996cadc001622fb5e363b421880102030405060708c0c0",
        "lastblockhash" : "0xc68ae51f9138c3586dc6ba0aa634fe3d43d01b9d8f50ddc60c1881407aea3855",
        "network" : "Singularity",
        "postState" : {
            "0x095e7baea6a6c7c4c2dfeb977efac326af552d87" : {
                "balance" : "0x16",
                "code" : "",
                "nonce" : "0x00",
                "storage" : {
                }
            },
            "0x576cc8c331abcf01d93bf3decd6f4814507feaeb" : {
                "balance" : "0x18493fba64ef0000",
                "code" : "",
                "nonce" : "0x00",
                "storage" : {
                }
            },
            "0x8888f1f195afa192cfee860698584c030f4c9db1" : {
                "balance" : "0x6fe3c10875978820",
                "code" : "",
                "nonce" : "0x00",
                "storage" : {
                }
            },
            "0xa94f5374fce5edbc8e2a8697c15331677e6ebf0b" : {
                "balance" : "0x09184e7157ca",
                "code" : "",
                "nonce" : "0x04",
                "storage" : {
                }
            }
        },
        "pre" : {
            "0xa94f5374fce5edbc8e2a8697c15331677e6ebf0b" : {
                "balance" : "0x09184e72a000",
                "code" : "",
                "nonce" : "0x00",
                "storage" : {
                }
            }
        },
        "sealEngine" : "Ethash"
    }
}